{
	"contracts/TokenSwap.sol": {
		"TokenSwap": {
			"abi": [
				{
					"inputs": [
						{
							"internalType": "address",
							"name": "_token1",
							"type": "address"
						},
						{
							"internalType": "address",
							"name": "_owner1",
							"type": "address"
						},
						{
							"internalType": "uint256",
							"name": "_amount1",
							"type": "uint256"
						},
						{
							"internalType": "address",
							"name": "_token2",
							"type": "address"
						},
						{
							"internalType": "address",
							"name": "_owner2",
							"type": "address"
						},
						{
							"internalType": "uint256",
							"name": "_amount2",
							"type": "uint256"
						}
					],
					"stateMutability": "nonpayable",
					"type": "constructor"
				},
				{
					"inputs": [],
					"name": "amount1",
					"outputs": [
						{
							"internalType": "uint256",
							"name": "",
							"type": "uint256"
						}
					],
					"stateMutability": "view",
					"type": "function"
				},
				{
					"inputs": [],
					"name": "amount2",
					"outputs": [
						{
							"internalType": "uint256",
							"name": "",
							"type": "uint256"
						}
					],
					"stateMutability": "view",
					"type": "function"
				},
				{
					"inputs": [],
					"name": "owner1",
					"outputs": [
						{
							"internalType": "address",
							"name": "",
							"type": "address"
						}
					],
					"stateMutability": "view",
					"type": "function"
				},
				{
					"inputs": [],
					"name": "owner2",
					"outputs": [
						{
							"internalType": "address",
							"name": "",
							"type": "address"
						}
					],
					"stateMutability": "view",
					"type": "function"
				},
				{
					"inputs": [
						{
							"internalType": "uint256",
							"name": "_amount1",
							"type": "uint256"
						}
					],
					"name": "setAmount1",
					"outputs": [],
					"stateMutability": "nonpayable",
					"type": "function"
				},
				{
					"inputs": [
						{
							"internalType": "uint256",
							"name": "_amount",
							"type": "uint256"
						}
					],
					"name": "setAmount2",
					"outputs": [],
					"stateMutability": "nonpayable",
					"type": "function"
				},
				{
					"inputs": [],
					"name": "swap",
					"outputs": [],
					"stateMutability": "nonpayable",
					"type": "function"
				},
				{
					"inputs": [],
					"name": "token1",
					"outputs": [
						{
							"internalType": "contract IERC20",
							"name": "",
							"type": "address"
						}
					],
					"stateMutability": "view",
					"type": "function"
				},
				{
					"inputs": [],
					"name": "token2",
					"outputs": [
						{
							"internalType": "contract IERC20",
							"name": "",
							"type": "address"
						}
					],
					"stateMutability": "view",
					"type": "function"
				}
			],
			"devdoc": {
				"kind": "dev",
				"methods": {},
				"version": 1
			},
			"evm": {
				"assembly": "    /* \"contracts/TokenSwap.sol\":561:2098  contract TokenSwap {... */\n  mstore(0x40, 0x80)\n    /* \"contracts/TokenSwap.sol\":757:1124  constructor(... */\n  callvalue\n  dup1\n  iszero\n  tag_1\n  jumpi\n  0x00\n  dup1\n  revert\ntag_1:\n  pop\n  mload(0x40)\n  sub(codesize, bytecodeSize)\n  dup1\n  bytecodeSize\n  dup4\n  codecopy\n  dup2\n  dup2\n  add\n  0x40\n  mstore\n  dup2\n  add\n  swap1\n  tag_2\n  swap2\n  swap1\n  tag_3\n  jump\t// in\ntag_2:\n    /* \"contracts/TokenSwap.sol\":961:968  _token1 */\n  dup6\n    /* \"contracts/TokenSwap.sol\":945:951  token1 */\n  0x00\n  dup1\n    /* \"contracts/TokenSwap.sol\":945:969  token1 = IERC20(_token1) */\n  0x0100\n  exp\n  dup2\n  sload\n  dup2\n  0xffffffffffffffffffffffffffffffffffffffff\n  mul\n  not\n  and\n  swap1\n  dup4\n  0xffffffffffffffffffffffffffffffffffffffff\n  and\n  mul\n  or\n  swap1\n  sstore\n  pop\n    /* \"contracts/TokenSwap.sol\":989:996  _owner1 */\n  dup5\n    /* \"contracts/TokenSwap.sol\":980:986  owner1 */\n  0x01\n  0x00\n    /* \"contracts/TokenSwap.sol\":980:996  owner1 = _owner1 */\n  0x0100\n  exp\n  dup2\n  sload\n  dup2\n  0xffffffffffffffffffffffffffffffffffffffff\n  mul\n  not\n  and\n  swap1\n  dup4\n  0xffffffffffffffffffffffffffffffffffffffff\n  and\n  mul\n  or\n  swap1\n  sstore\n  pop\n    /* \"contracts/TokenSwap.sol\":1017:1025  _amount1 */\n  dup4\n    /* \"contracts/TokenSwap.sol\":1007:1014  amount1 */\n  0x02\n    /* \"contracts/TokenSwap.sol\":1007:1025  amount1 = _amount1 */\n  dup2\n  swap1\n  sstore\n  pop\n    /* \"contracts/TokenSwap.sol\":1052:1059  _token2 */\n  dup3\n    /* \"contracts/TokenSwap.sol\":1036:1042  token2 */\n  0x03\n  0x00\n    /* \"contracts/TokenSwap.sol\":1036:1060  token2 = IERC20(_token2) */\n  0x0100\n  exp\n  dup2\n  sload\n  dup2\n  0xffffffffffffffffffffffffffffffffffffffff\n  mul\n  not\n  and\n  swap1\n  dup4\n  0xffffffffffffffffffffffffffffffffffffffff\n  and\n  mul\n  or\n  swap1\n  sstore\n  pop\n    /* \"contracts/TokenSwap.sol\":1080:1087  _owner2 */\n  dup2\n    /* \"contracts/TokenSwap.sol\":1071:1077  owner2 */\n  0x04\n  0x00\n    /* \"contracts/TokenSwap.sol\":1071:1087  owner2 = _owner2 */\n  0x0100\n  exp\n  dup2\n  sload\n  dup2\n  0xffffffffffffffffffffffffffffffffffffffff\n  mul\n  not\n  and\n  swap1\n  dup4\n  0xffffffffffffffffffffffffffffffffffffffff\n  and\n  mul\n  or\n  swap1\n  sstore\n  pop\n    /* \"contracts/TokenSwap.sol\":1108:1116  _amount2 */\n  dup1\n    /* \"contracts/TokenSwap.sol\":1098:1105  amount2 */\n  0x05\n    /* \"contracts/TokenSwap.sol\":1098:1116  amount2 = _amount2 */\n  dup2\n  swap1\n  sstore\n  pop\n    /* \"contracts/TokenSwap.sol\":757:1124  constructor(... */\n  pop\n  pop\n  pop\n  pop\n  pop\n  pop\n    /* \"contracts/TokenSwap.sol\":561:2098  contract TokenSwap {... */\n  jump(tag_6)\n    /* \"#utility.yul\":88:205   */\ntag_8:\n    /* \"#utility.yul\":197:198   */\n  0x00\n    /* \"#utility.yul\":194:195   */\n  dup1\n    /* \"#utility.yul\":187:199   */\n  revert\n    /* \"#utility.yul\":334:460   */\ntag_10:\n    /* \"#utility.yul\":371:378   */\n  0x00\n    /* \"#utility.yul\":411:453   */\n  0xffffffffffffffffffffffffffffffffffffffff\n    /* \"#utility.yul\":404:409   */\n  dup3\n    /* \"#utility.yul\":400:454   */\n  and\n    /* \"#utility.yul\":389:454   */\n  swap1\n  pop\n    /* \"#utility.yul\":334:460   */\n  swap2\n  swap1\n  pop\n  jump\t// out\n    /* \"#utility.yul\":466:562   */\ntag_11:\n    /* \"#utility.yul\":503:510   */\n  0x00\n    /* \"#utility.yul\":532:556   */\n  tag_23\n    /* \"#utility.yul\":550:555   */\n  dup3\n    /* \"#utility.yul\":532:556   */\n  tag_10\n  jump\t// in\ntag_23:\n    /* \"#utility.yul\":521:556   */\n  swap1\n  pop\n    /* \"#utility.yul\":466:562   */\n  swap2\n  swap1\n  pop\n  jump\t// out\n    /* \"#utility.yul\":568:690   */\ntag_12:\n    /* \"#utility.yul\":641:665   */\n  tag_25\n    /* \"#utility.yul\":659:664   */\n  dup2\n    /* \"#utility.yul\":641:665   */\n  tag_11\n  jump\t// in\ntag_25:\n    /* \"#utility.yul\":634:639   */\n  dup2\n    /* \"#utility.yul\":631:666   */\n  eq\n    /* \"#utility.yul\":621:684   */\n  tag_26\n  jumpi\n    /* \"#utility.yul\":680:681   */\n  0x00\n    /* \"#utility.yul\":677:678   */\n  dup1\n    /* \"#utility.yul\":670:682   */\n  revert\n    /* \"#utility.yul\":621:684   */\ntag_26:\n    /* \"#utility.yul\":568:690   */\n  pop\n  jump\t// out\n    /* \"#utility.yul\":696:839   */\ntag_13:\n    /* \"#utility.yul\":753:758   */\n  0x00\n    /* \"#utility.yul\":784:790   */\n  dup2\n    /* \"#utility.yul\":778:791   */\n  mload\n    /* \"#utility.yul\":769:791   */\n  swap1\n  pop\n    /* \"#utility.yul\":800:833   */\n  tag_28\n    /* \"#utility.yul\":827:832   */\n  dup2\n    /* \"#utility.yul\":800:833   */\n  tag_12\n  jump\t// in\ntag_28:\n    /* \"#utility.yul\":696:839   */\n  swap3\n  swap2\n  pop\n  pop\n  jump\t// out\n    /* \"#utility.yul\":845:922   */\ntag_14:\n    /* \"#utility.yul\":882:889   */\n  0x00\n    /* \"#utility.yul\":911:916   */\n  dup2\n    /* \"#utility.yul\":900:916   */\n  swap1\n  pop\n    /* \"#utility.yul\":845:922   */\n  swap2\n  swap1\n  pop\n  jump\t// out\n    /* \"#utility.yul\":928:1050   */\ntag_15:\n    /* \"#utility.yul\":1001:1025   */\n  tag_31\n    /* \"#utility.yul\":1019:1024   */\n  dup2\n    /* \"#utility.yul\":1001:1025   */\n  tag_14\n  jump\t// in\ntag_31:\n    /* \"#utility.yul\":994:999   */\n  dup2\n    /* \"#utility.yul\":991:1026   */\n  eq\n    /* \"#utility.yul\":981:1044   */\n  tag_32\n  jumpi\n    /* \"#utility.yul\":1040:1041   */\n  0x00\n    /* \"#utility.yul\":1037:1038   */\n  dup1\n    /* \"#utility.yul\":1030:1042   */\n  revert\n    /* \"#utility.yul\":981:1044   */\ntag_32:\n    /* \"#utility.yul\":928:1050   */\n  pop\n  jump\t// out\n    /* \"#utility.yul\":1056:1199   */\ntag_16:\n    /* \"#utility.yul\":1113:1118   */\n  0x00\n    /* \"#utility.yul\":1144:1150   */\n  dup2\n    /* \"#utility.yul\":1138:1151   */\n  mload\n    /* \"#utility.yul\":1129:1151   */\n  swap1\n  pop\n    /* \"#utility.yul\":1160:1193   */\n  tag_34\n    /* \"#utility.yul\":1187:1192   */\n  dup2\n    /* \"#utility.yul\":1160:1193   */\n  tag_15\n  jump\t// in\ntag_34:\n    /* \"#utility.yul\":1056:1199   */\n  swap3\n  swap2\n  pop\n  pop\n  jump\t// out\n    /* \"#utility.yul\":1205:2339   */\ntag_3:\n    /* \"#utility.yul\":1320:1326   */\n  0x00\n    /* \"#utility.yul\":1328:1334   */\n  dup1\n    /* \"#utility.yul\":1336:1342   */\n  0x00\n    /* \"#utility.yul\":1344:1350   */\n  dup1\n    /* \"#utility.yul\":1352:1358   */\n  0x00\n    /* \"#utility.yul\":1360:1366   */\n  dup1\n    /* \"#utility.yul\":1409:1412   */\n  0xc0\n    /* \"#utility.yul\":1397:1406   */\n  dup8\n    /* \"#utility.yul\":1388:1395   */\n  dup10\n    /* \"#utility.yul\":1384:1407   */\n  sub\n    /* \"#utility.yul\":1380:1413   */\n  slt\n    /* \"#utility.yul\":1377:1497   */\n  iszero\n  tag_36\n  jumpi\n    /* \"#utility.yul\":1416:1495   */\n  tag_37\n  tag_8\n  jump\t// in\ntag_37:\n    /* \"#utility.yul\":1377:1497   */\ntag_36:\n    /* \"#utility.yul\":1536:1537   */\n  0x00\n    /* \"#utility.yul\":1561:1625   */\n  tag_38\n    /* \"#utility.yul\":1617:1624   */\n  dup10\n    /* \"#utility.yul\":1608:1614   */\n  dup3\n    /* \"#utility.yul\":1597:1606   */\n  dup11\n    /* \"#utility.yul\":1593:1615   */\n  add\n    /* \"#utility.yul\":1561:1625   */\n  tag_13\n  jump\t// in\ntag_38:\n    /* \"#utility.yul\":1551:1625   */\n  swap7\n  pop\n    /* \"#utility.yul\":1507:1635   */\n  pop\n    /* \"#utility.yul\":1674:1676   */\n  0x20\n    /* \"#utility.yul\":1700:1764   */\n  tag_39\n    /* \"#utility.yul\":1756:1763   */\n  dup10\n    /* \"#utility.yul\":1747:1753   */\n  dup3\n    /* \"#utility.yul\":1736:1745   */\n  dup11\n    /* \"#utility.yul\":1732:1754   */\n  add\n    /* \"#utility.yul\":1700:1764   */\n  tag_13\n  jump\t// in\ntag_39:\n    /* \"#utility.yul\":1690:1764   */\n  swap6\n  pop\n    /* \"#utility.yul\":1645:1774   */\n  pop\n    /* \"#utility.yul\":1813:1815   */\n  0x40\n    /* \"#utility.yul\":1839:1903   */\n  tag_40\n    /* \"#utility.yul\":1895:1902   */\n  dup10\n    /* \"#utility.yul\":1886:1892   */\n  dup3\n    /* \"#utility.yul\":1875:1884   */\n  dup11\n    /* \"#utility.yul\":1871:1893   */\n  add\n    /* \"#utility.yul\":1839:1903   */\n  tag_16\n  jump\t// in\ntag_40:\n    /* \"#utility.yul\":1829:1903   */\n  swap5\n  pop\n    /* \"#utility.yul\":1784:1913   */\n  pop\n    /* \"#utility.yul\":1952:1954   */\n  0x60\n    /* \"#utility.yul\":1978:2042   */\n  tag_41\n    /* \"#utility.yul\":2034:2041   */\n  dup10\n    /* \"#utility.yul\":2025:2031   */\n  dup3\n    /* \"#utility.yul\":2014:2023   */\n  dup11\n    /* \"#utility.yul\":2010:2032   */\n  add\n    /* \"#utility.yul\":1978:2042   */\n  tag_13\n  jump\t// in\ntag_41:\n    /* \"#utility.yul\":1968:2042   */\n  swap4\n  pop\n    /* \"#utility.yul\":1923:2052   */\n  pop\n    /* \"#utility.yul\":2091:2094   */\n  0x80\n    /* \"#utility.yul\":2118:2182   */\n  tag_42\n    /* \"#utility.yul\":2174:2181   */\n  dup10\n    /* \"#utility.yul\":2165:2171   */\n  dup3\n    /* \"#utility.yul\":2154:2163   */\n  dup11\n    /* \"#utility.yul\":2150:2172   */\n  add\n    /* \"#utility.yul\":2118:2182   */\n  tag_13\n  jump\t// in\ntag_42:\n    /* \"#utility.yul\":2108:2182   */\n  swap3\n  pop\n    /* \"#utility.yul\":2062:2192   */\n  pop\n    /* \"#utility.yul\":2231:2234   */\n  0xa0\n    /* \"#utility.yul\":2258:2322   */\n  tag_43\n    /* \"#utility.yul\":2314:2321   */\n  dup10\n    /* \"#utility.yul\":2305:2311   */\n  dup3\n    /* \"#utility.yul\":2294:2303   */\n  dup11\n    /* \"#utility.yul\":2290:2312   */\n  add\n    /* \"#utility.yul\":2258:2322   */\n  tag_16\n  jump\t// in\ntag_43:\n    /* \"#utility.yul\":2248:2322   */\n  swap2\n  pop\n    /* \"#utility.yul\":2202:2332   */\n  pop\n    /* \"#utility.yul\":1205:2339   */\n  swap3\n  swap6\n  pop\n  swap3\n  swap6\n  pop\n  swap3\n  swap6\n  jump\t// out\n    /* \"contracts/TokenSwap.sol\":561:2098  contract TokenSwap {... */\ntag_6:\n  dataSize(sub_0)\n  dup1\n  dataOffset(sub_0)\n  0x00\n  codecopy\n  0x00\n  return\nstop\n\nsub_0: assembly {\n        /* \"contracts/TokenSwap.sol\":561:2098  contract TokenSwap {... */\n      mstore(0x40, 0x80)\n      callvalue\n      dup1\n      iszero\n      tag_1\n      jumpi\n      0x00\n      dup1\n      revert\n    tag_1:\n      pop\n      jumpi(tag_2, lt(calldatasize, 0x04))\n      shr(0xe0, calldataload(0x00))\n      dup1\n      0x8119c065\n      gt\n      tag_12\n      jumpi\n      dup1\n      0x8119c065\n      eq\n      tag_7\n      jumpi\n      dup1\n      0xaca8ebf4\n      eq\n      tag_8\n      jumpi\n      dup1\n      0xbdeb2ec8\n      eq\n      tag_9\n      jumpi\n      dup1\n      0xd21220a7\n      eq\n      tag_10\n      jumpi\n      dup1\n      0xf400fde4\n      eq\n      tag_11\n      jumpi\n      jump(tag_2)\n    tag_12:\n      dup1\n      0x057bfcc7\n      eq\n      tag_3\n      jumpi\n      dup1\n      0x25be124e\n      eq\n      tag_4\n      jumpi\n      dup1\n      0x52709725\n      eq\n      tag_5\n      jumpi\n      dup1\n      0x73688914\n      eq\n      tag_6\n      jumpi\n    tag_2:\n      0x00\n      dup1\n      revert\n        /* \"contracts/TokenSwap.sol\":726:748  uint256 public amount2 */\n    tag_3:\n      tag_13\n      tag_14\n      jump\t// in\n    tag_13:\n      mload(0x40)\n      tag_15\n      swap2\n      swap1\n      tag_16\n      jump\t// in\n    tag_15:\n      mload(0x40)\n      dup1\n      swap2\n      sub\n      swap1\n      return\n        /* \"contracts/TokenSwap.sol\":671:691  IERC20 public token2 */\n    tag_4:\n      tag_17\n      tag_18\n      jump\t// in\n    tag_17:\n      mload(0x40)\n      tag_19\n      swap2\n      swap1\n      tag_20\n      jump\t// in\n    tag_19:\n      mload(0x40)\n      dup1\n      swap2\n      sub\n      swap1\n      return\n        /* \"contracts/TokenSwap.sol\":698:719  address public owner2 */\n    tag_5:\n      tag_21\n      tag_22\n      jump\t// in\n    tag_21:\n      mload(0x40)\n      tag_23\n      swap2\n      swap1\n      tag_24\n      jump\t// in\n    tag_23:\n      mload(0x40)\n      dup1\n      swap2\n      sub\n      swap1\n      return\n        /* \"contracts/TokenSwap.sol\":614:635  address public owner1 */\n    tag_6:\n      tag_25\n      tag_26\n      jump\t// in\n    tag_25:\n      mload(0x40)\n      tag_27\n      swap2\n      swap1\n      tag_24\n      jump\t// in\n    tag_27:\n      mload(0x40)\n      dup1\n      swap2\n      sub\n      swap1\n      return\n        /* \"contracts/TokenSwap.sol\":1310:1819  function swap() public {... */\n    tag_7:\n      tag_28\n      tag_29\n      jump\t// in\n    tag_28:\n      stop\n        /* \"contracts/TokenSwap.sol\":1132:1214  function setAmount1(uint256 _amount1) public {... */\n    tag_8:\n      tag_30\n      0x04\n      dup1\n      calldatasize\n      sub\n      dup2\n      add\n      swap1\n      tag_31\n      swap2\n      swap1\n      tag_32\n      jump\t// in\n    tag_31:\n      tag_33\n      jump\t// in\n    tag_30:\n      stop\n        /* \"contracts/TokenSwap.sol\":1222:1302  function setAmount2(uint256 _amount) public {... */\n    tag_9:\n      tag_34\n      0x04\n      dup1\n      calldatasize\n      sub\n      dup2\n      add\n      swap1\n      tag_35\n      swap2\n      swap1\n      tag_32\n      jump\t// in\n    tag_35:\n      tag_36\n      jump\t// in\n    tag_34:\n      stop\n        /* \"contracts/TokenSwap.sol\":587:607  IERC20 public token1 */\n    tag_10:\n      tag_37\n      tag_38\n      jump\t// in\n    tag_37:\n      mload(0x40)\n      tag_39\n      swap2\n      swap1\n      tag_20\n      jump\t// in\n    tag_39:\n      mload(0x40)\n      dup1\n      swap2\n      sub\n      swap1\n      return\n        /* \"contracts/TokenSwap.sol\":642:664  uint256 public amount1 */\n    tag_11:\n      tag_40\n      tag_41\n      jump\t// in\n    tag_40:\n      mload(0x40)\n      tag_42\n      swap2\n      swap1\n      tag_16\n      jump\t// in\n    tag_42:\n      mload(0x40)\n      dup1\n      swap2\n      sub\n      swap1\n      return\n        /* \"contracts/TokenSwap.sol\":726:748  uint256 public amount2 */\n    tag_14:\n      sload(0x05)\n      dup2\n      jump\t// out\n        /* \"contracts/TokenSwap.sol\":671:691  IERC20 public token2 */\n    tag_18:\n      0x03\n      0x00\n      swap1\n      sload\n      swap1\n      0x0100\n      exp\n      swap1\n      div\n      0xffffffffffffffffffffffffffffffffffffffff\n      and\n      dup2\n      jump\t// out\n        /* \"contracts/TokenSwap.sol\":698:719  address public owner2 */\n    tag_22:\n      0x04\n      0x00\n      swap1\n      sload\n      swap1\n      0x0100\n      exp\n      swap1\n      div\n      0xffffffffffffffffffffffffffffffffffffffff\n      and\n      dup2\n      jump\t// out\n        /* \"contracts/TokenSwap.sol\":614:635  address public owner1 */\n    tag_26:\n      0x01\n      0x00\n      swap1\n      sload\n      swap1\n      0x0100\n      exp\n      swap1\n      div\n      0xffffffffffffffffffffffffffffffffffffffff\n      and\n      dup2\n      jump\t// out\n        /* \"contracts/TokenSwap.sol\":1310:1819  function swap() public {... */\n    tag_29:\n        /* \"contracts/TokenSwap.sol\":1366:1372  owner1 */\n      0x01\n      0x00\n      swap1\n      sload\n      swap1\n      0x0100\n      exp\n      swap1\n      div\n      0xffffffffffffffffffffffffffffffffffffffff\n      and\n        /* \"contracts/TokenSwap.sol\":1352:1372  msg.sender == owner1 */\n      0xffffffffffffffffffffffffffffffffffffffff\n      and\n        /* \"contracts/TokenSwap.sol\":1352:1362  msg.sender */\n      caller\n        /* \"contracts/TokenSwap.sol\":1352:1372  msg.sender == owner1 */\n      0xffffffffffffffffffffffffffffffffffffffff\n      and\n      eq\n        /* \"contracts/TokenSwap.sol\":1352:1396  msg.sender == owner1 || msg.sender == owner2 */\n      dup1\n      tag_44\n      jumpi\n      pop\n        /* \"contracts/TokenSwap.sol\":1390:1396  owner2 */\n      0x04\n      0x00\n      swap1\n      sload\n      swap1\n      0x0100\n      exp\n      swap1\n      div\n      0xffffffffffffffffffffffffffffffffffffffff\n      and\n        /* \"contracts/TokenSwap.sol\":1376:1396  msg.sender == owner2 */\n      0xffffffffffffffffffffffffffffffffffffffff\n      and\n        /* \"contracts/TokenSwap.sol\":1376:1386  msg.sender */\n      caller\n        /* \"contracts/TokenSwap.sol\":1376:1396  msg.sender == owner2 */\n      0xffffffffffffffffffffffffffffffffffffffff\n      and\n      eq\n        /* \"contracts/TokenSwap.sol\":1352:1396  msg.sender == owner1 || msg.sender == owner2 */\n    tag_44:\n        /* \"contracts/TokenSwap.sol\":1344:1415  require(msg.sender == owner1 || msg.sender == owner2, \"Not authorized\") */\n      tag_45\n      jumpi\n      mload(0x40)\n      0x08c379a000000000000000000000000000000000000000000000000000000000\n      dup2\n      mstore\n      0x04\n      add\n      tag_46\n      swap1\n      tag_47\n      jump\t// in\n    tag_46:\n      mload(0x40)\n      dup1\n      swap2\n      sub\n      swap1\n      revert\n    tag_45:\n        /* \"contracts/TokenSwap.sol\":1491:1498  amount1 */\n      sload(0x02)\n        /* \"contracts/TokenSwap.sol\":1448:1454  token1 */\n      0x00\n      dup1\n      sload\n      swap1\n      0x0100\n      exp\n      swap1\n      div\n      0xffffffffffffffffffffffffffffffffffffffff\n      and\n        /* \"contracts/TokenSwap.sol\":1448:1464  token1.allowance */\n      0xffffffffffffffffffffffffffffffffffffffff\n      and\n      0xdd62ed3e\n        /* \"contracts/TokenSwap.sol\":1465:1471  owner1 */\n      0x01\n      0x00\n      swap1\n      sload\n      swap1\n      0x0100\n      exp\n      swap1\n      div\n      0xffffffffffffffffffffffffffffffffffffffff\n      and\n        /* \"contracts/TokenSwap.sol\":1481:1485  this */\n      address\n        /* \"contracts/TokenSwap.sol\":1448:1487  token1.allowance(owner1, address(this)) */\n      mload(0x40)\n      dup4\n      0xffffffff\n      and\n      0xe0\n      shl\n      dup2\n      mstore\n      0x04\n      add\n      tag_48\n      swap3\n      swap2\n      swap1\n      tag_49\n      jump\t// in\n    tag_48:\n      0x20\n      mload(0x40)\n      dup1\n      dup4\n      sub\n      dup2\n      dup7\n      gas\n      staticcall\n      iszero\n      dup1\n      iszero\n      tag_51\n      jumpi\n      returndatasize\n      0x00\n      dup1\n      returndatacopy\n      revert(0x00, returndatasize)\n    tag_51:\n      pop\n      pop\n      pop\n      pop\n      mload(0x40)\n      returndatasize\n      not(0x1f)\n      0x1f\n      dup3\n      add\n      and\n      dup3\n      add\n      dup1\n      0x40\n      mstore\n      pop\n      dup2\n      add\n      swap1\n      tag_52\n      swap2\n      swap1\n      tag_53\n      jump\t// in\n    tag_52:\n        /* \"contracts/TokenSwap.sol\":1448:1498  token1.allowance(owner1, address(this)) >= amount1 */\n      lt\n      iszero\n        /* \"contracts/TokenSwap.sol\":1426:1551  require(... */\n      tag_54\n      jumpi\n      mload(0x40)\n      0x08c379a000000000000000000000000000000000000000000000000000000000\n      dup2\n      mstore\n      0x04\n      add\n      tag_55\n      swap1\n      tag_56\n      jump\t// in\n    tag_55:\n      mload(0x40)\n      dup1\n      swap2\n      sub\n      swap1\n      revert\n    tag_54:\n        /* \"contracts/TokenSwap.sol\":1627:1634  amount2 */\n      sload(0x05)\n        /* \"contracts/TokenSwap.sol\":1584:1590  token2 */\n      0x03\n      0x00\n      swap1\n      sload\n      swap1\n      0x0100\n      exp\n      swap1\n      div\n      0xffffffffffffffffffffffffffffffffffffffff\n      and\n        /* \"contracts/TokenSwap.sol\":1584:1600  token2.allowance */\n      0xffffffffffffffffffffffffffffffffffffffff\n      and\n      0xdd62ed3e\n        /* \"contracts/TokenSwap.sol\":1601:1607  owner2 */\n      0x04\n      0x00\n      swap1\n      sload\n      swap1\n      0x0100\n      exp\n      swap1\n      div\n      0xffffffffffffffffffffffffffffffffffffffff\n      and\n        /* \"contracts/TokenSwap.sol\":1617:1621  this */\n      address\n        /* \"contracts/TokenSwap.sol\":1584:1623  token2.allowance(owner2, address(this)) */\n      mload(0x40)\n      dup4\n      0xffffffff\n      and\n      0xe0\n      shl\n      dup2\n      mstore\n      0x04\n      add\n      tag_57\n      swap3\n      swap2\n      swap1\n      tag_49\n      jump\t// in\n    tag_57:\n      0x20\n      mload(0x40)\n      dup1\n      dup4\n      sub\n      dup2\n      dup7\n      gas\n      staticcall\n      iszero\n      dup1\n      iszero\n      tag_59\n      jumpi\n      returndatasize\n      0x00\n      dup1\n      returndatacopy\n      revert(0x00, returndatasize)\n    tag_59:\n      pop\n      pop\n      pop\n      pop\n      mload(0x40)\n      returndatasize\n      not(0x1f)\n      0x1f\n      dup3\n      add\n      and\n      dup3\n      add\n      dup1\n      0x40\n      mstore\n      pop\n      dup2\n      add\n      swap1\n      tag_60\n      swap2\n      swap1\n      tag_53\n      jump\t// in\n    tag_60:\n        /* \"contracts/TokenSwap.sol\":1584:1634  token2.allowance(owner2, address(this)) >= amount2 */\n      lt\n      iszero\n        /* \"contracts/TokenSwap.sol\":1562:1687  require(... */\n      tag_61\n      jumpi\n      mload(0x40)\n      0x08c379a000000000000000000000000000000000000000000000000000000000\n      dup2\n      mstore\n      0x04\n      add\n      tag_62\n      swap1\n      tag_63\n      jump\t// in\n    tag_62:\n      mload(0x40)\n      dup1\n      swap2\n      sub\n      swap1\n      revert\n    tag_61:\n        /* \"contracts/TokenSwap.sol\":1700:1750  _safeTransferFrom(token1, owner1, owner2, amount1) */\n      tag_64\n        /* \"contracts/TokenSwap.sol\":1718:1724  token1 */\n      0x00\n      dup1\n      sload\n      swap1\n      0x0100\n      exp\n      swap1\n      div\n      0xffffffffffffffffffffffffffffffffffffffff\n      and\n        /* \"contracts/TokenSwap.sol\":1726:1732  owner1 */\n      0x01\n      0x00\n      swap1\n      sload\n      swap1\n      0x0100\n      exp\n      swap1\n      div\n      0xffffffffffffffffffffffffffffffffffffffff\n      and\n        /* \"contracts/TokenSwap.sol\":1734:1740  owner2 */\n      0x04\n      0x00\n      swap1\n      sload\n      swap1\n      0x0100\n      exp\n      swap1\n      div\n      0xffffffffffffffffffffffffffffffffffffffff\n      and\n        /* \"contracts/TokenSwap.sol\":1742:1749  amount1 */\n      sload(0x02)\n        /* \"contracts/TokenSwap.sol\":1700:1717  _safeTransferFrom */\n      tag_65\n        /* \"contracts/TokenSwap.sol\":1700:1750  _safeTransferFrom(token1, owner1, owner2, amount1) */\n      jump\t// in\n    tag_64:\n        /* \"contracts/TokenSwap.sol\":1761:1811  _safeTransferFrom(token2, owner2, owner1, amount2) */\n      tag_66\n        /* \"contracts/TokenSwap.sol\":1779:1785  token2 */\n      0x03\n      0x00\n      swap1\n      sload\n      swap1\n      0x0100\n      exp\n      swap1\n      div\n      0xffffffffffffffffffffffffffffffffffffffff\n      and\n        /* \"contracts/TokenSwap.sol\":1787:1793  owner2 */\n      0x04\n      0x00\n      swap1\n      sload\n      swap1\n      0x0100\n      exp\n      swap1\n      div\n      0xffffffffffffffffffffffffffffffffffffffff\n      and\n        /* \"contracts/TokenSwap.sol\":1795:1801  owner1 */\n      0x01\n      0x00\n      swap1\n      sload\n      swap1\n      0x0100\n      exp\n      swap1\n      div\n      0xffffffffffffffffffffffffffffffffffffffff\n      and\n        /* \"contracts/TokenSwap.sol\":1803:1810  amount2 */\n      sload(0x05)\n        /* \"contracts/TokenSwap.sol\":1761:1778  _safeTransferFrom */\n      tag_65\n        /* \"contracts/TokenSwap.sol\":1761:1811  _safeTransferFrom(token2, owner2, owner1, amount2) */\n      jump\t// in\n    tag_66:\n        /* \"contracts/TokenSwap.sol\":1310:1819  function swap() public {... */\n      jump\t// out\n        /* \"contracts/TokenSwap.sol\":1132:1214  function setAmount1(uint256 _amount1) public {... */\n    tag_33:\n        /* \"contracts/TokenSwap.sol\":1198:1206  _amount1 */\n      dup1\n        /* \"contracts/TokenSwap.sol\":1188:1195  amount1 */\n      0x02\n        /* \"contracts/TokenSwap.sol\":1188:1206  amount1 = _amount1 */\n      dup2\n      swap1\n      sstore\n      pop\n        /* \"contracts/TokenSwap.sol\":1132:1214  function setAmount1(uint256 _amount1) public {... */\n      pop\n      jump\t// out\n        /* \"contracts/TokenSwap.sol\":1222:1302  function setAmount2(uint256 _amount) public {... */\n    tag_36:\n        /* \"contracts/TokenSwap.sol\":1287:1294  _amount */\n      dup1\n        /* \"contracts/TokenSwap.sol\":1277:1284  amount2 */\n      0x05\n        /* \"contracts/TokenSwap.sol\":1277:1294  amount2 = _amount */\n      dup2\n      swap1\n      sstore\n      pop\n        /* \"contracts/TokenSwap.sol\":1222:1302  function setAmount2(uint256 _amount) public {... */\n      pop\n      jump\t// out\n        /* \"contracts/TokenSwap.sol\":587:607  IERC20 public token1 */\n    tag_38:\n      0x00\n      dup1\n      sload\n      swap1\n      0x0100\n      exp\n      swap1\n      div\n      0xffffffffffffffffffffffffffffffffffffffff\n      and\n      dup2\n      jump\t// out\n        /* \"contracts/TokenSwap.sol\":642:664  uint256 public amount1 */\n    tag_41:\n      sload(0x02)\n      dup2\n      jump\t// out\n        /* \"contracts/TokenSwap.sol\":1827:2095  function _safeTransferFrom(... */\n    tag_65:\n        /* \"contracts/TokenSwap.sol\":1981:1990  bool sent */\n      0x00\n        /* \"contracts/TokenSwap.sol\":1993:1998  token */\n      dup5\n        /* \"contracts/TokenSwap.sol\":1993:2011  token.transferFrom */\n      0xffffffffffffffffffffffffffffffffffffffff\n      and\n      0x23b872dd\n        /* \"contracts/TokenSwap.sol\":2012:2018  sender */\n      dup6\n        /* \"contracts/TokenSwap.sol\":2020:2029  recipient */\n      dup6\n        /* \"contracts/TokenSwap.sol\":2031:2037  amount */\n      dup6\n        /* \"contracts/TokenSwap.sol\":1993:2038  token.transferFrom(sender, recipient, amount) */\n      mload(0x40)\n      dup5\n      0xffffffff\n      and\n      0xe0\n      shl\n      dup2\n      mstore\n      0x04\n      add\n      tag_70\n      swap4\n      swap3\n      swap2\n      swap1\n      tag_71\n      jump\t// in\n    tag_70:\n      0x20\n      mload(0x40)\n      dup1\n      dup4\n      sub\n      dup2\n      0x00\n      dup8\n      gas\n      call\n      iszero\n      dup1\n      iszero\n      tag_73\n      jumpi\n      returndatasize\n      0x00\n      dup1\n      returndatacopy\n      revert(0x00, returndatasize)\n    tag_73:\n      pop\n      pop\n      pop\n      pop\n      mload(0x40)\n      returndatasize\n      not(0x1f)\n      0x1f\n      dup3\n      add\n      and\n      dup3\n      add\n      dup1\n      0x40\n      mstore\n      pop\n      dup2\n      add\n      swap1\n      tag_74\n      swap2\n      swap1\n      tag_75\n      jump\t// in\n    tag_74:\n        /* \"contracts/TokenSwap.sol\":1981:2038  bool sent = token.transferFrom(sender, recipient, amount) */\n      swap1\n      pop\n        /* \"contracts/TokenSwap.sol\":2057:2061  sent */\n      dup1\n        /* \"contracts/TokenSwap.sol\":2049:2087  require(sent, \"Token transfer failed\") */\n      tag_76\n      jumpi\n      mload(0x40)\n      0x08c379a000000000000000000000000000000000000000000000000000000000\n      dup2\n      mstore\n      0x04\n      add\n      tag_77\n      swap1\n      tag_78\n      jump\t// in\n    tag_77:\n      mload(0x40)\n      dup1\n      swap2\n      sub\n      swap1\n      revert\n    tag_76:\n        /* \"contracts/TokenSwap.sol\":1970:2095  {... */\n      pop\n        /* \"contracts/TokenSwap.sol\":1827:2095  function _safeTransferFrom(... */\n      pop\n      pop\n      pop\n      pop\n      jump\t// out\n        /* \"#utility.yul\":7:84   */\n    tag_79:\n        /* \"#utility.yul\":44:51   */\n      0x00\n        /* \"#utility.yul\":73:78   */\n      dup2\n        /* \"#utility.yul\":62:78   */\n      swap1\n      pop\n        /* \"#utility.yul\":7:84   */\n      swap2\n      swap1\n      pop\n      jump\t// out\n        /* \"#utility.yul\":90:208   */\n    tag_80:\n        /* \"#utility.yul\":177:201   */\n      tag_110\n        /* \"#utility.yul\":195:200   */\n      dup2\n        /* \"#utility.yul\":177:201   */\n      tag_79\n      jump\t// in\n    tag_110:\n        /* \"#utility.yul\":172:175   */\n      dup3\n        /* \"#utility.yul\":165:202   */\n      mstore\n        /* \"#utility.yul\":90:208   */\n      pop\n      pop\n      jump\t// out\n        /* \"#utility.yul\":214:436   */\n    tag_16:\n        /* \"#utility.yul\":307:311   */\n      0x00\n        /* \"#utility.yul\":345:347   */\n      0x20\n        /* \"#utility.yul\":334:343   */\n      dup3\n        /* \"#utility.yul\":330:348   */\n      add\n        /* \"#utility.yul\":322:348   */\n      swap1\n      pop\n        /* \"#utility.yul\":358:429   */\n      tag_112\n        /* \"#utility.yul\":426:427   */\n      0x00\n        /* \"#utility.yul\":415:424   */\n      dup4\n        /* \"#utility.yul\":411:428   */\n      add\n        /* \"#utility.yul\":402:408   */\n      dup5\n        /* \"#utility.yul\":358:429   */\n      tag_80\n      jump\t// in\n    tag_112:\n        /* \"#utility.yul\":214:436   */\n      swap3\n      swap2\n      pop\n      pop\n      jump\t// out\n        /* \"#utility.yul\":442:568   */\n    tag_81:\n        /* \"#utility.yul\":479:486   */\n      0x00\n        /* \"#utility.yul\":519:561   */\n      0xffffffffffffffffffffffffffffffffffffffff\n        /* \"#utility.yul\":512:517   */\n      dup3\n        /* \"#utility.yul\":508:562   */\n      and\n        /* \"#utility.yul\":497:562   */\n      swap1\n      pop\n        /* \"#utility.yul\":442:568   */\n      swap2\n      swap1\n      pop\n      jump\t// out\n        /* \"#utility.yul\":574:634   */\n    tag_82:\n        /* \"#utility.yul\":602:605   */\n      0x00\n        /* \"#utility.yul\":623:628   */\n      dup2\n        /* \"#utility.yul\":616:628   */\n      swap1\n      pop\n        /* \"#utility.yul\":574:634   */\n      swap2\n      swap1\n      pop\n      jump\t// out\n        /* \"#utility.yul\":640:782   */\n    tag_83:\n        /* \"#utility.yul\":690:699   */\n      0x00\n        /* \"#utility.yul\":723:776   */\n      tag_116\n        /* \"#utility.yul\":741:775   */\n      tag_117\n        /* \"#utility.yul\":750:774   */\n      tag_118\n        /* \"#utility.yul\":768:773   */\n      dup5\n        /* \"#utility.yul\":750:774   */\n      tag_81\n      jump\t// in\n    tag_118:\n        /* \"#utility.yul\":741:775   */\n      tag_82\n      jump\t// in\n    tag_117:\n        /* \"#utility.yul\":723:776   */\n      tag_81\n      jump\t// in\n    tag_116:\n        /* \"#utility.yul\":710:776   */\n      swap1\n      pop\n        /* \"#utility.yul\":640:782   */\n      swap2\n      swap1\n      pop\n      jump\t// out\n        /* \"#utility.yul\":788:914   */\n    tag_84:\n        /* \"#utility.yul\":838:847   */\n      0x00\n        /* \"#utility.yul\":871:908   */\n      tag_120\n        /* \"#utility.yul\":902:907   */\n      dup3\n        /* \"#utility.yul\":871:908   */\n      tag_83\n      jump\t// in\n    tag_120:\n        /* \"#utility.yul\":858:908   */\n      swap1\n      pop\n        /* \"#utility.yul\":788:914   */\n      swap2\n      swap1\n      pop\n      jump\t// out\n        /* \"#utility.yul\":920:1059   */\n    tag_85:\n        /* \"#utility.yul\":983:992   */\n      0x00\n        /* \"#utility.yul\":1016:1053   */\n      tag_122\n        /* \"#utility.yul\":1047:1052   */\n      dup3\n        /* \"#utility.yul\":1016:1053   */\n      tag_84\n      jump\t// in\n    tag_122:\n        /* \"#utility.yul\":1003:1053   */\n      swap1\n      pop\n        /* \"#utility.yul\":920:1059   */\n      swap2\n      swap1\n      pop\n      jump\t// out\n        /* \"#utility.yul\":1065:1222   */\n    tag_86:\n        /* \"#utility.yul\":1165:1215   */\n      tag_124\n        /* \"#utility.yul\":1209:1214   */\n      dup2\n        /* \"#utility.yul\":1165:1215   */\n      tag_85\n      jump\t// in\n    tag_124:\n        /* \"#utility.yul\":1160:1163   */\n      dup3\n        /* \"#utility.yul\":1153:1216   */\n      mstore\n        /* \"#utility.yul\":1065:1222   */\n      pop\n      pop\n      jump\t// out\n        /* \"#utility.yul\":1228:1476   */\n    tag_20:\n        /* \"#utility.yul\":1334:1338   */\n      0x00\n        /* \"#utility.yul\":1372:1374   */\n      0x20\n        /* \"#utility.yul\":1361:1370   */\n      dup3\n        /* \"#utility.yul\":1357:1375   */\n      add\n        /* \"#utility.yul\":1349:1375   */\n      swap1\n      pop\n        /* \"#utility.yul\":1385:1469   */\n      tag_126\n        /* \"#utility.yul\":1466:1467   */\n      0x00\n        /* \"#utility.yul\":1455:1464   */\n      dup4\n        /* \"#utility.yul\":1451:1468   */\n      add\n        /* \"#utility.yul\":1442:1448   */\n      dup5\n        /* \"#utility.yul\":1385:1469   */\n      tag_86\n      jump\t// in\n    tag_126:\n        /* \"#utility.yul\":1228:1476   */\n      swap3\n      swap2\n      pop\n      pop\n      jump\t// out\n        /* \"#utility.yul\":1482:1578   */\n    tag_87:\n        /* \"#utility.yul\":1519:1526   */\n      0x00\n        /* \"#utility.yul\":1548:1572   */\n      tag_128\n        /* \"#utility.yul\":1566:1571   */\n      dup3\n        /* \"#utility.yul\":1548:1572   */\n      tag_81\n      jump\t// in\n    tag_128:\n        /* \"#utility.yul\":1537:1572   */\n      swap1\n      pop\n        /* \"#utility.yul\":1482:1578   */\n      swap2\n      swap1\n      pop\n      jump\t// out\n        /* \"#utility.yul\":1584:1702   */\n    tag_88:\n        /* \"#utility.yul\":1671:1695   */\n      tag_130\n        /* \"#utility.yul\":1689:1694   */\n      dup2\n        /* \"#utility.yul\":1671:1695   */\n      tag_87\n      jump\t// in\n    tag_130:\n        /* \"#utility.yul\":1666:1669   */\n      dup3\n        /* \"#utility.yul\":1659:1696   */\n      mstore\n        /* \"#utility.yul\":1584:1702   */\n      pop\n      pop\n      jump\t// out\n        /* \"#utility.yul\":1708:1930   */\n    tag_24:\n        /* \"#utility.yul\":1801:1805   */\n      0x00\n        /* \"#utility.yul\":1839:1841   */\n      0x20\n        /* \"#utility.yul\":1828:1837   */\n      dup3\n        /* \"#utility.yul\":1824:1842   */\n      add\n        /* \"#utility.yul\":1816:1842   */\n      swap1\n      pop\n        /* \"#utility.yul\":1852:1923   */\n      tag_132\n        /* \"#utility.yul\":1920:1921   */\n      0x00\n        /* \"#utility.yul\":1909:1918   */\n      dup4\n        /* \"#utility.yul\":1905:1922   */\n      add\n        /* \"#utility.yul\":1896:1902   */\n      dup5\n        /* \"#utility.yul\":1852:1923   */\n      tag_88\n      jump\t// in\n    tag_132:\n        /* \"#utility.yul\":1708:1930   */\n      swap3\n      swap2\n      pop\n      pop\n      jump\t// out\n        /* \"#utility.yul\":2017:2134   */\n    tag_90:\n        /* \"#utility.yul\":2126:2127   */\n      0x00\n        /* \"#utility.yul\":2123:2124   */\n      dup1\n        /* \"#utility.yul\":2116:2128   */\n      revert\n        /* \"#utility.yul\":2263:2385   */\n    tag_92:\n        /* \"#utility.yul\":2336:2360   */\n      tag_137\n        /* \"#utility.yul\":2354:2359   */\n      dup2\n        /* \"#utility.yul\":2336:2360   */\n      tag_79\n      jump\t// in\n    tag_137:\n        /* \"#utility.yul\":2329:2334   */\n      dup2\n        /* \"#utility.yul\":2326:2361   */\n      eq\n        /* \"#utility.yul\":2316:2379   */\n      tag_138\n      jumpi\n        /* \"#utility.yul\":2375:2376   */\n      0x00\n        /* \"#utility.yul\":2372:2373   */\n      dup1\n        /* \"#utility.yul\":2365:2377   */\n      revert\n        /* \"#utility.yul\":2316:2379   */\n    tag_138:\n        /* \"#utility.yul\":2263:2385   */\n      pop\n      jump\t// out\n        /* \"#utility.yul\":2391:2530   */\n    tag_93:\n        /* \"#utility.yul\":2437:2442   */\n      0x00\n        /* \"#utility.yul\":2475:2481   */\n      dup2\n        /* \"#utility.yul\":2462:2482   */\n      calldataload\n        /* \"#utility.yul\":2453:2482   */\n      swap1\n      pop\n        /* \"#utility.yul\":2491:2524   */\n      tag_140\n        /* \"#utility.yul\":2518:2523   */\n      dup2\n        /* \"#utility.yul\":2491:2524   */\n      tag_92\n      jump\t// in\n    tag_140:\n        /* \"#utility.yul\":2391:2530   */\n      swap3\n      swap2\n      pop\n      pop\n      jump\t// out\n        /* \"#utility.yul\":2536:2865   */\n    tag_32:\n        /* \"#utility.yul\":2595:2601   */\n      0x00\n        /* \"#utility.yul\":2644:2646   */\n      0x20\n        /* \"#utility.yul\":2632:2641   */\n      dup3\n        /* \"#utility.yul\":2623:2630   */\n      dup5\n        /* \"#utility.yul\":2619:2642   */\n      sub\n        /* \"#utility.yul\":2615:2647   */\n      slt\n        /* \"#utility.yul\":2612:2731   */\n      iszero\n      tag_142\n      jumpi\n        /* \"#utility.yul\":2650:2729   */\n      tag_143\n      tag_90\n      jump\t// in\n    tag_143:\n        /* \"#utility.yul\":2612:2731   */\n    tag_142:\n        /* \"#utility.yul\":2770:2771   */\n      0x00\n        /* \"#utility.yul\":2795:2848   */\n      tag_144\n        /* \"#utility.yul\":2840:2847   */\n      dup5\n        /* \"#utility.yul\":2831:2837   */\n      dup3\n        /* \"#utility.yul\":2820:2829   */\n      dup6\n        /* \"#utility.yul\":2816:2838   */\n      add\n        /* \"#utility.yul\":2795:2848   */\n      tag_93\n      jump\t// in\n    tag_144:\n        /* \"#utility.yul\":2785:2848   */\n      swap2\n      pop\n        /* \"#utility.yul\":2741:2858   */\n      pop\n        /* \"#utility.yul\":2536:2865   */\n      swap3\n      swap2\n      pop\n      pop\n      jump\t// out\n        /* \"#utility.yul\":2871:3040   */\n    tag_94:\n        /* \"#utility.yul\":2955:2966   */\n      0x00\n        /* \"#utility.yul\":2989:2995   */\n      dup3\n        /* \"#utility.yul\":2984:2987   */\n      dup3\n        /* \"#utility.yul\":2977:2996   */\n      mstore\n        /* \"#utility.yul\":3029:3033   */\n      0x20\n        /* \"#utility.yul\":3024:3027   */\n      dup3\n        /* \"#utility.yul\":3020:3034   */\n      add\n        /* \"#utility.yul\":3005:3034   */\n      swap1\n      pop\n        /* \"#utility.yul\":2871:3040   */\n      swap3\n      swap2\n      pop\n      pop\n      jump\t// out\n        /* \"#utility.yul\":3046:3210   */\n    tag_95:\n        /* \"#utility.yul\":3186:3202   */\n      0x4e6f7420617574686f72697a6564000000000000000000000000000000000000\n        /* \"#utility.yul\":3182:3183   */\n      0x00\n        /* \"#utility.yul\":3174:3180   */\n      dup3\n        /* \"#utility.yul\":3170:3184   */\n      add\n        /* \"#utility.yul\":3163:3203   */\n      mstore\n        /* \"#utility.yul\":3046:3210   */\n      pop\n      jump\t// out\n        /* \"#utility.yul\":3216:3582   */\n    tag_96:\n        /* \"#utility.yul\":3358:3361   */\n      0x00\n        /* \"#utility.yul\":3379:3446   */\n      tag_148\n        /* \"#utility.yul\":3443:3445   */\n      0x0e\n        /* \"#utility.yul\":3438:3441   */\n      dup4\n        /* \"#utility.yul\":3379:3446   */\n      tag_94\n      jump\t// in\n    tag_148:\n        /* \"#utility.yul\":3372:3446   */\n      swap2\n      pop\n        /* \"#utility.yul\":3455:3548   */\n      tag_149\n        /* \"#utility.yul\":3544:3547   */\n      dup3\n        /* \"#utility.yul\":3455:3548   */\n      tag_95\n      jump\t// in\n    tag_149:\n        /* \"#utility.yul\":3573:3575   */\n      0x20\n        /* \"#utility.yul\":3568:3571   */\n      dup3\n        /* \"#utility.yul\":3564:3576   */\n      add\n        /* \"#utility.yul\":3557:3576   */\n      swap1\n      pop\n        /* \"#utility.yul\":3216:3582   */\n      swap2\n      swap1\n      pop\n      jump\t// out\n        /* \"#utility.yul\":3588:4007   */\n    tag_47:\n        /* \"#utility.yul\":3754:3758   */\n      0x00\n        /* \"#utility.yul\":3792:3794   */\n      0x20\n        /* \"#utility.yul\":3781:3790   */\n      dup3\n        /* \"#utility.yul\":3777:3795   */\n      add\n        /* \"#utility.yul\":3769:3795   */\n      swap1\n      pop\n        /* \"#utility.yul\":3841:3850   */\n      dup2\n        /* \"#utility.yul\":3835:3839   */\n      dup2\n        /* \"#utility.yul\":3831:3851   */\n      sub\n        /* \"#utility.yul\":3827:3828   */\n      0x00\n        /* \"#utility.yul\":3816:3825   */\n      dup4\n        /* \"#utility.yul\":3812:3829   */\n      add\n        /* \"#utility.yul\":3805:3852   */\n      mstore\n        /* \"#utility.yul\":3869:4000   */\n      tag_151\n        /* \"#utility.yul\":3995:3999   */\n      dup2\n        /* \"#utility.yul\":3869:4000   */\n      tag_96\n      jump\t// in\n    tag_151:\n        /* \"#utility.yul\":3861:4000   */\n      swap1\n      pop\n        /* \"#utility.yul\":3588:4007   */\n      swap2\n      swap1\n      pop\n      jump\t// out\n        /* \"#utility.yul\":4013:4345   */\n    tag_49:\n        /* \"#utility.yul\":4134:4138   */\n      0x00\n        /* \"#utility.yul\":4172:4174   */\n      0x40\n        /* \"#utility.yul\":4161:4170   */\n      dup3\n        /* \"#utility.yul\":4157:4175   */\n      add\n        /* \"#utility.yul\":4149:4175   */\n      swap1\n      pop\n        /* \"#utility.yul\":4185:4256   */\n      tag_153\n        /* \"#utility.yul\":4253:4254   */\n      0x00\n        /* \"#utility.yul\":4242:4251   */\n      dup4\n        /* \"#utility.yul\":4238:4255   */\n      add\n        /* \"#utility.yul\":4229:4235   */\n      dup6\n        /* \"#utility.yul\":4185:4256   */\n      tag_88\n      jump\t// in\n    tag_153:\n        /* \"#utility.yul\":4266:4338   */\n      tag_154\n        /* \"#utility.yul\":4334:4336   */\n      0x20\n        /* \"#utility.yul\":4323:4332   */\n      dup4\n        /* \"#utility.yul\":4319:4337   */\n      add\n        /* \"#utility.yul\":4310:4316   */\n      dup5\n        /* \"#utility.yul\":4266:4338   */\n      tag_88\n      jump\t// in\n    tag_154:\n        /* \"#utility.yul\":4013:4345   */\n      swap4\n      swap3\n      pop\n      pop\n      pop\n      jump\t// out\n        /* \"#utility.yul\":4351:4494   */\n    tag_97:\n        /* \"#utility.yul\":4408:4413   */\n      0x00\n        /* \"#utility.yul\":4439:4445   */\n      dup2\n        /* \"#utility.yul\":4433:4446   */\n      mload\n        /* \"#utility.yul\":4424:4446   */\n      swap1\n      pop\n        /* \"#utility.yul\":4455:4488   */\n      tag_156\n        /* \"#utility.yul\":4482:4487   */\n      dup2\n        /* \"#utility.yul\":4455:4488   */\n      tag_92\n      jump\t// in\n    tag_156:\n        /* \"#utility.yul\":4351:4494   */\n      swap3\n      swap2\n      pop\n      pop\n      jump\t// out\n        /* \"#utility.yul\":4500:4851   */\n    tag_53:\n        /* \"#utility.yul\":4570:4576   */\n      0x00\n        /* \"#utility.yul\":4619:4621   */\n      0x20\n        /* \"#utility.yul\":4607:4616   */\n      dup3\n        /* \"#utility.yul\":4598:4605   */\n      dup5\n        /* \"#utility.yul\":4594:4617   */\n      sub\n        /* \"#utility.yul\":4590:4622   */\n      slt\n        /* \"#utility.yul\":4587:4706   */\n      iszero\n      tag_158\n      jumpi\n        /* \"#utility.yul\":4625:4704   */\n      tag_159\n      tag_90\n      jump\t// in\n    tag_159:\n        /* \"#utility.yul\":4587:4706   */\n    tag_158:\n        /* \"#utility.yul\":4745:4746   */\n      0x00\n        /* \"#utility.yul\":4770:4834   */\n      tag_160\n        /* \"#utility.yul\":4826:4833   */\n      dup5\n        /* \"#utility.yul\":4817:4823   */\n      dup3\n        /* \"#utility.yul\":4806:4815   */\n      dup6\n        /* \"#utility.yul\":4802:4824   */\n      add\n        /* \"#utility.yul\":4770:4834   */\n      tag_97\n      jump\t// in\n    tag_160:\n        /* \"#utility.yul\":4760:4834   */\n      swap2\n      pop\n        /* \"#utility.yul\":4716:4844   */\n      pop\n        /* \"#utility.yul\":4500:4851   */\n      swap3\n      swap2\n      pop\n      pop\n      jump\t// out\n        /* \"#utility.yul\":4857:5032   */\n    tag_98:\n        /* \"#utility.yul\":4997:5024   */\n      0x546f6b656e203120616c6c6f77616e636520746f6f206c6f7700000000000000\n        /* \"#utility.yul\":4993:4994   */\n      0x00\n        /* \"#utility.yul\":4985:4991   */\n      dup3\n        /* \"#utility.yul\":4981:4995   */\n      add\n        /* \"#utility.yul\":4974:5025   */\n      mstore\n        /* \"#utility.yul\":4857:5032   */\n      pop\n      jump\t// out\n        /* \"#utility.yul\":5038:5404   */\n    tag_99:\n        /* \"#utility.yul\":5180:5183   */\n      0x00\n        /* \"#utility.yul\":5201:5268   */\n      tag_163\n        /* \"#utility.yul\":5265:5267   */\n      0x19\n        /* \"#utility.yul\":5260:5263   */\n      dup4\n        /* \"#utility.yul\":5201:5268   */\n      tag_94\n      jump\t// in\n    tag_163:\n        /* \"#utility.yul\":5194:5268   */\n      swap2\n      pop\n        /* \"#utility.yul\":5277:5370   */\n      tag_164\n        /* \"#utility.yul\":5366:5369   */\n      dup3\n        /* \"#utility.yul\":5277:5370   */\n      tag_98\n      jump\t// in\n    tag_164:\n        /* \"#utility.yul\":5395:5397   */\n      0x20\n        /* \"#utility.yul\":5390:5393   */\n      dup3\n        /* \"#utility.yul\":5386:5398   */\n      add\n        /* \"#utility.yul\":5379:5398   */\n      swap1\n      pop\n        /* \"#utility.yul\":5038:5404   */\n      swap2\n      swap1\n      pop\n      jump\t// out\n        /* \"#utility.yul\":5410:5829   */\n    tag_56:\n        /* \"#utility.yul\":5576:5580   */\n      0x00\n        /* \"#utility.yul\":5614:5616   */\n      0x20\n        /* \"#utility.yul\":5603:5612   */\n      dup3\n        /* \"#utility.yul\":5599:5617   */\n      add\n        /* \"#utility.yul\":5591:5617   */\n      swap1\n      pop\n        /* \"#utility.yul\":5663:5672   */\n      dup2\n        /* \"#utility.yul\":5657:5661   */\n      dup2\n        /* \"#utility.yul\":5653:5673   */\n      sub\n        /* \"#utility.yul\":5649:5650   */\n      0x00\n        /* \"#utility.yul\":5638:5647   */\n      dup4\n        /* \"#utility.yul\":5634:5651   */\n      add\n        /* \"#utility.yul\":5627:5674   */\n      mstore\n        /* \"#utility.yul\":5691:5822   */\n      tag_166\n        /* \"#utility.yul\":5817:5821   */\n      dup2\n        /* \"#utility.yul\":5691:5822   */\n      tag_99\n      jump\t// in\n    tag_166:\n        /* \"#utility.yul\":5683:5822   */\n      swap1\n      pop\n        /* \"#utility.yul\":5410:5829   */\n      swap2\n      swap1\n      pop\n      jump\t// out\n        /* \"#utility.yul\":5835:6010   */\n    tag_100:\n        /* \"#utility.yul\":5975:6002   */\n      0x546f6b656e203220616c6c6f77616e636520746f6f206c6f7700000000000000\n        /* \"#utility.yul\":5971:5972   */\n      0x00\n        /* \"#utility.yul\":5963:5969   */\n      dup3\n        /* \"#utility.yul\":5959:5973   */\n      add\n        /* \"#utility.yul\":5952:6003   */\n      mstore\n        /* \"#utility.yul\":5835:6010   */\n      pop\n      jump\t// out\n        /* \"#utility.yul\":6016:6382   */\n    tag_101:\n        /* \"#utility.yul\":6158:6161   */\n      0x00\n        /* \"#utility.yul\":6179:6246   */\n      tag_169\n        /* \"#utility.yul\":6243:6245   */\n      0x19\n        /* \"#utility.yul\":6238:6241   */\n      dup4\n        /* \"#utility.yul\":6179:6246   */\n      tag_94\n      jump\t// in\n    tag_169:\n        /* \"#utility.yul\":6172:6246   */\n      swap2\n      pop\n        /* \"#utility.yul\":6255:6348   */\n      tag_170\n        /* \"#utility.yul\":6344:6347   */\n      dup3\n        /* \"#utility.yul\":6255:6348   */\n      tag_100\n      jump\t// in\n    tag_170:\n        /* \"#utility.yul\":6373:6375   */\n      0x20\n        /* \"#utility.yul\":6368:6371   */\n      dup3\n        /* \"#utility.yul\":6364:6376   */\n      add\n        /* \"#utility.yul\":6357:6376   */\n      swap1\n      pop\n        /* \"#utility.yul\":6016:6382   */\n      swap2\n      swap1\n      pop\n      jump\t// out\n        /* \"#utility.yul\":6388:6807   */\n    tag_63:\n        /* \"#utility.yul\":6554:6558   */\n      0x00\n        /* \"#utility.yul\":6592:6594   */\n      0x20\n        /* \"#utility.yul\":6581:6590   */\n      dup3\n        /* \"#utility.yul\":6577:6595   */\n      add\n        /* \"#utility.yul\":6569:6595   */\n      swap1\n      pop\n        /* \"#utility.yul\":6641:6650   */\n      dup2\n        /* \"#utility.yul\":6635:6639   */\n      dup2\n        /* \"#utility.yul\":6631:6651   */\n      sub\n        /* \"#utility.yul\":6627:6628   */\n      0x00\n        /* \"#utility.yul\":6616:6625   */\n      dup4\n        /* \"#utility.yul\":6612:6629   */\n      add\n        /* \"#utility.yul\":6605:6652   */\n      mstore\n        /* \"#utility.yul\":6669:6800   */\n      tag_172\n        /* \"#utility.yul\":6795:6799   */\n      dup2\n        /* \"#utility.yul\":6669:6800   */\n      tag_101\n      jump\t// in\n    tag_172:\n        /* \"#utility.yul\":6661:6800   */\n      swap1\n      pop\n        /* \"#utility.yul\":6388:6807   */\n      swap2\n      swap1\n      pop\n      jump\t// out\n        /* \"#utility.yul\":6813:7255   */\n    tag_71:\n        /* \"#utility.yul\":6962:6966   */\n      0x00\n        /* \"#utility.yul\":7000:7002   */\n      0x60\n        /* \"#utility.yul\":6989:6998   */\n      dup3\n        /* \"#utility.yul\":6985:7003   */\n      add\n        /* \"#utility.yul\":6977:7003   */\n      swap1\n      pop\n        /* \"#utility.yul\":7013:7084   */\n      tag_174\n        /* \"#utility.yul\":7081:7082   */\n      0x00\n        /* \"#utility.yul\":7070:7079   */\n      dup4\n        /* \"#utility.yul\":7066:7083   */\n      add\n        /* \"#utility.yul\":7057:7063   */\n      dup7\n        /* \"#utility.yul\":7013:7084   */\n      tag_88\n      jump\t// in\n    tag_174:\n        /* \"#utility.yul\":7094:7166   */\n      tag_175\n        /* \"#utility.yul\":7162:7164   */\n      0x20\n        /* \"#utility.yul\":7151:7160   */\n      dup4\n        /* \"#utility.yul\":7147:7165   */\n      add\n        /* \"#utility.yul\":7138:7144   */\n      dup6\n        /* \"#utility.yul\":7094:7166   */\n      tag_88\n      jump\t// in\n    tag_175:\n        /* \"#utility.yul\":7176:7248   */\n      tag_176\n        /* \"#utility.yul\":7244:7246   */\n      0x40\n        /* \"#utility.yul\":7233:7242   */\n      dup4\n        /* \"#utility.yul\":7229:7247   */\n      add\n        /* \"#utility.yul\":7220:7226   */\n      dup5\n        /* \"#utility.yul\":7176:7248   */\n      tag_80\n      jump\t// in\n    tag_176:\n        /* \"#utility.yul\":6813:7255   */\n      swap5\n      swap4\n      pop\n      pop\n      pop\n      pop\n      jump\t// out\n        /* \"#utility.yul\":7261:7351   */\n    tag_102:\n        /* \"#utility.yul\":7295:7302   */\n      0x00\n        /* \"#utility.yul\":7338:7343   */\n      dup2\n        /* \"#utility.yul\":7331:7344   */\n      iszero\n        /* \"#utility.yul\":7324:7345   */\n      iszero\n        /* \"#utility.yul\":7313:7345   */\n      swap1\n      pop\n        /* \"#utility.yul\":7261:7351   */\n      swap2\n      swap1\n      pop\n      jump\t// out\n        /* \"#utility.yul\":7357:7473   */\n    tag_103:\n        /* \"#utility.yul\":7427:7448   */\n      tag_179\n        /* \"#utility.yul\":7442:7447   */\n      dup2\n        /* \"#utility.yul\":7427:7448   */\n      tag_102\n      jump\t// in\n    tag_179:\n        /* \"#utility.yul\":7420:7425   */\n      dup2\n        /* \"#utility.yul\":7417:7449   */\n      eq\n        /* \"#utility.yul\":7407:7467   */\n      tag_180\n      jumpi\n        /* \"#utility.yul\":7463:7464   */\n      0x00\n        /* \"#utility.yul\":7460:7461   */\n      dup1\n        /* \"#utility.yul\":7453:7465   */\n      revert\n        /* \"#utility.yul\":7407:7467   */\n    tag_180:\n        /* \"#utility.yul\":7357:7473   */\n      pop\n      jump\t// out\n        /* \"#utility.yul\":7479:7616   */\n    tag_104:\n        /* \"#utility.yul\":7533:7538   */\n      0x00\n        /* \"#utility.yul\":7564:7570   */\n      dup2\n        /* \"#utility.yul\":7558:7571   */\n      mload\n        /* \"#utility.yul\":7549:7571   */\n      swap1\n      pop\n        /* \"#utility.yul\":7580:7610   */\n      tag_182\n        /* \"#utility.yul\":7604:7609   */\n      dup2\n        /* \"#utility.yul\":7580:7610   */\n      tag_103\n      jump\t// in\n    tag_182:\n        /* \"#utility.yul\":7479:7616   */\n      swap3\n      swap2\n      pop\n      pop\n      jump\t// out\n        /* \"#utility.yul\":7622:7967   */\n    tag_75:\n        /* \"#utility.yul\":7689:7695   */\n      0x00\n        /* \"#utility.yul\":7738:7740   */\n      0x20\n        /* \"#utility.yul\":7726:7735   */\n      dup3\n        /* \"#utility.yul\":7717:7724   */\n      dup5\n        /* \"#utility.yul\":7713:7736   */\n      sub\n        /* \"#utility.yul\":7709:7741   */\n      slt\n        /* \"#utility.yul\":7706:7825   */\n      iszero\n      tag_184\n      jumpi\n        /* \"#utility.yul\":7744:7823   */\n      tag_185\n      tag_90\n      jump\t// in\n    tag_185:\n        /* \"#utility.yul\":7706:7825   */\n    tag_184:\n        /* \"#utility.yul\":7864:7865   */\n      0x00\n        /* \"#utility.yul\":7889:7950   */\n      tag_186\n        /* \"#utility.yul\":7942:7949   */\n      dup5\n        /* \"#utility.yul\":7933:7939   */\n      dup3\n        /* \"#utility.yul\":7922:7931   */\n      dup6\n        /* \"#utility.yul\":7918:7940   */\n      add\n        /* \"#utility.yul\":7889:7950   */\n      tag_104\n      jump\t// in\n    tag_186:\n        /* \"#utility.yul\":7879:7950   */\n      swap2\n      pop\n        /* \"#utility.yul\":7835:7960   */\n      pop\n        /* \"#utility.yul\":7622:7967   */\n      swap3\n      swap2\n      pop\n      pop\n      jump\t// out\n        /* \"#utility.yul\":7973:8144   */\n    tag_105:\n        /* \"#utility.yul\":8113:8136   */\n      0x546f6b656e207472616e73666572206661696c65640000000000000000000000\n        /* \"#utility.yul\":8109:8110   */\n      0x00\n        /* \"#utility.yul\":8101:8107   */\n      dup3\n        /* \"#utility.yul\":8097:8111   */\n      add\n        /* \"#utility.yul\":8090:8137   */\n      mstore\n        /* \"#utility.yul\":7973:8144   */\n      pop\n      jump\t// out\n        /* \"#utility.yul\":8150:8516   */\n    tag_106:\n        /* \"#utility.yul\":8292:8295   */\n      0x00\n        /* \"#utility.yul\":8313:8380   */\n      tag_189\n        /* \"#utility.yul\":8377:8379   */\n      0x15\n        /* \"#utility.yul\":8372:8375   */\n      dup4\n        /* \"#utility.yul\":8313:8380   */\n      tag_94\n      jump\t// in\n    tag_189:\n        /* \"#utility.yul\":8306:8380   */\n      swap2\n      pop\n        /* \"#utility.yul\":8389:8482   */\n      tag_190\n        /* \"#utility.yul\":8478:8481   */\n      dup3\n        /* \"#utility.yul\":8389:8482   */\n      tag_105\n      jump\t// in\n    tag_190:\n        /* \"#utility.yul\":8507:8509   */\n      0x20\n        /* \"#utility.yul\":8502:8505   */\n      dup3\n        /* \"#utility.yul\":8498:8510   */\n      add\n        /* \"#utility.yul\":8491:8510   */\n      swap1\n      pop\n        /* \"#utility.yul\":8150:8516   */\n      swap2\n      swap1\n      pop\n      jump\t// out\n        /* \"#utility.yul\":8522:8941   */\n    tag_78:\n        /* \"#utility.yul\":8688:8692   */\n      0x00\n        /* \"#utility.yul\":8726:8728   */\n      0x20\n        /* \"#utility.yul\":8715:8724   */\n      dup3\n        /* \"#utility.yul\":8711:8729   */\n      add\n        /* \"#utility.yul\":8703:8729   */\n      swap1\n      pop\n        /* \"#utility.yul\":8775:8784   */\n      dup2\n        /* \"#utility.yul\":8769:8773   */\n      dup2\n        /* \"#utility.yul\":8765:8785   */\n      sub\n        /* \"#utility.yul\":8761:8762   */\n      0x00\n        /* \"#utility.yul\":8750:8759   */\n      dup4\n        /* \"#utility.yul\":8746:8763   */\n      add\n        /* \"#utility.yul\":8739:8786   */\n      mstore\n        /* \"#utility.yul\":8803:8934   */\n      tag_192\n        /* \"#utility.yul\":8929:8933   */\n      dup2\n        /* \"#utility.yul\":8803:8934   */\n      tag_106\n      jump\t// in\n    tag_192:\n        /* \"#utility.yul\":8795:8934   */\n      swap1\n      pop\n        /* \"#utility.yul\":8522:8941   */\n      swap2\n      swap1\n      pop\n      jump\t// out\n\n    auxdata: 0xa26469706673582212209d1c7a396f0e7298ae2bbb555fad9d3a6c7a35a1c23e3b1d2297ef0967dc7f7364736f6c634300081a0033\n}\n",
				"bytecode": {
					"linkReferences": {},
					"object": "608060405234801561000f575f80fd5b50604051610d71380380610d71833981810160405281019061003191906101da565b855f806101000a81548173ffffffffffffffffffffffffffffffffffffffff021916908373ffffffffffffffffffffffffffffffffffffffff1602179055508460015f6101000a81548173ffffffffffffffffffffffffffffffffffffffff021916908373ffffffffffffffffffffffffffffffffffffffff160217905550836002819055508260035f6101000a81548173ffffffffffffffffffffffffffffffffffffffff021916908373ffffffffffffffffffffffffffffffffffffffff1602179055508160045f6101000a81548173ffffffffffffffffffffffffffffffffffffffff021916908373ffffffffffffffffffffffffffffffffffffffff16021790555080600581905550505050505050610263565b5f80fd5b5f73ffffffffffffffffffffffffffffffffffffffff82169050919050565b5f6101768261014d565b9050919050565b6101868161016c565b8114610190575f80fd5b50565b5f815190506101a18161017d565b92915050565b5f819050919050565b6101b9816101a7565b81146101c3575f80fd5b50565b5f815190506101d4816101b0565b92915050565b5f805f805f8060c087890312156101f4576101f3610149565b5b5f61020189828a01610193565b965050602061021289828a01610193565b955050604061022389828a016101c6565b945050606061023489828a01610193565b935050608061024589828a01610193565b92505060a061025689828a016101c6565b9150509295509295509295565b610b01806102705f395ff3fe608060405234801561000f575f80fd5b5060043610610091575f3560e01c80638119c065116100645780638119c0651461010d578063aca8ebf414610117578063bdeb2ec814610133578063d21220a71461014f578063f400fde41461016d57610091565b8063057bfcc71461009557806325be124e146100b357806352709725146100d157806373688914146100ef575b5f80fd5b61009d61018b565b6040516100aa91906106e2565b60405180910390f35b6100bb610191565b6040516100c89190610775565b60405180910390f35b6100d96101b6565b6040516100e691906107ae565b60405180910390f35b6100f76101db565b60405161010491906107ae565b60405180910390f35b610115610200565b005b610131600480360381019061012c91906107f5565b6105c6565b005b61014d600480360381019061014891906107f5565b6105d0565b005b6101576105da565b6040516101649190610775565b60405180910390f35b6101756105fd565b60405161018291906106e2565b60405180910390f35b60055481565b60035f9054906101000a900473ffffffffffffffffffffffffffffffffffffffff1681565b60045f9054906101000a900473ffffffffffffffffffffffffffffffffffffffff1681565b60015f9054906101000a900473ffffffffffffffffffffffffffffffffffffffff1681565b60015f9054906101000a900473ffffffffffffffffffffffffffffffffffffffff1673ffffffffffffffffffffffffffffffffffffffff163373ffffffffffffffffffffffffffffffffffffffff1614806102a7575060045f9054906101000a900473ffffffffffffffffffffffffffffffffffffffff1673ffffffffffffffffffffffffffffffffffffffff163373ffffffffffffffffffffffffffffffffffffffff16145b6102e6576040517f08c379a00000000000000000000000000000000000000000000000000000000081526004016102dd9061087a565b60405180910390fd5b6002545f8054906101000a900473ffffffffffffffffffffffffffffffffffffffff1673ffffffffffffffffffffffffffffffffffffffff1663dd62ed3e60015f9054906101000a900473ffffffffffffffffffffffffffffffffffffffff16306040518363ffffffff1660e01b8152600401610364929190610898565b602060405180830381865afa15801561037f573d5f803e3d5ffd5b505050506040513d601f19601f820116820180604052508101906103a391906108d3565b10156103e4576040517f08c379a00000000000000000000000000000000000000000000000000000000081526004016103db90610948565b60405180910390fd5b60055460035f9054906101000a900473ffffffffffffffffffffffffffffffffffffffff1673ffffffffffffffffffffffffffffffffffffffff1663dd62ed3e60045f9054906101000a900473ffffffffffffffffffffffffffffffffffffffff16306040518363ffffffff1660e01b8152600401610464929190610898565b602060405180830381865afa15801561047f573d5f803e3d5ffd5b505050506040513d601f19601f820116820180604052508101906104a391906108d3565b10156104e4576040517f08c379a00000000000000000000000000000000000000000000000000000000081526004016104db906109b0565b60405180910390fd5b6105535f8054906101000a900473ffffffffffffffffffffffffffffffffffffffff1660015f9054906101000a900473ffffffffffffffffffffffffffffffffffffffff1660045f9054906101000a900473ffffffffffffffffffffffffffffffffffffffff16600254610603565b6105c460035f9054906101000a900473ffffffffffffffffffffffffffffffffffffffff1660045f9054906101000a900473ffffffffffffffffffffffffffffffffffffffff1660015f9054906101000a900473ffffffffffffffffffffffffffffffffffffffff16600554610603565b565b8060028190555050565b8060058190555050565b5f8054906101000a900473ffffffffffffffffffffffffffffffffffffffff1681565b60025481565b5f8473ffffffffffffffffffffffffffffffffffffffff166323b872dd8585856040518463ffffffff1660e01b8152600401610641939291906109ce565b6020604051808303815f875af115801561065d573d5f803e3d5ffd5b505050506040513d601f19601f820116820180604052508101906106819190610a38565b9050806106c3576040517f08c379a00000000000000000000000000000000000000000000000000000000081526004016106ba90610aad565b60405180910390fd5b5050505050565b5f819050919050565b6106dc816106ca565b82525050565b5f6020820190506106f55f8301846106d3565b92915050565b5f73ffffffffffffffffffffffffffffffffffffffff82169050919050565b5f819050919050565b5f61073d610738610733846106fb565b61071a565b6106fb565b9050919050565b5f61074e82610723565b9050919050565b5f61075f82610744565b9050919050565b61076f81610755565b82525050565b5f6020820190506107885f830184610766565b92915050565b5f610798826106fb565b9050919050565b6107a88161078e565b82525050565b5f6020820190506107c15f83018461079f565b92915050565b5f80fd5b6107d4816106ca565b81146107de575f80fd5b50565b5f813590506107ef816107cb565b92915050565b5f6020828403121561080a576108096107c7565b5b5f610817848285016107e1565b91505092915050565b5f82825260208201905092915050565b7f4e6f7420617574686f72697a65640000000000000000000000000000000000005f82015250565b5f610864600e83610820565b915061086f82610830565b602082019050919050565b5f6020820190508181035f83015261089181610858565b9050919050565b5f6040820190506108ab5f83018561079f565b6108b8602083018461079f565b9392505050565b5f815190506108cd816107cb565b92915050565b5f602082840312156108e8576108e76107c7565b5b5f6108f5848285016108bf565b91505092915050565b7f546f6b656e203120616c6c6f77616e636520746f6f206c6f77000000000000005f82015250565b5f610932601983610820565b915061093d826108fe565b602082019050919050565b5f6020820190508181035f83015261095f81610926565b9050919050565b7f546f6b656e203220616c6c6f77616e636520746f6f206c6f77000000000000005f82015250565b5f61099a601983610820565b91506109a582610966565b602082019050919050565b5f6020820190508181035f8301526109c78161098e565b9050919050565b5f6060820190506109e15f83018661079f565b6109ee602083018561079f565b6109fb60408301846106d3565b949350505050565b5f8115159050919050565b610a1781610a03565b8114610a21575f80fd5b50565b5f81519050610a3281610a0e565b92915050565b5f60208284031215610a4d57610a4c6107c7565b5b5f610a5a84828501610a24565b91505092915050565b7f546f6b656e207472616e73666572206661696c656400000000000000000000005f82015250565b5f610a97601583610820565b9150610aa282610a63565b602082019050919050565b5f6020820190508181035f830152610ac481610a8b565b905091905056fea26469706673582212209d1c7a396f0e7298ae2bbb555fad9d3a6c7a35a1c23e3b1d2297ef0967dc7f7364736f6c634300081a0033",
					"opcodes": "PUSH1 0x80 PUSH1 0x40 MSTORE CALLVALUE DUP1 ISZERO PUSH2 0xF JUMPI PUSH0 DUP1 REVERT JUMPDEST POP PUSH1 0x40 MLOAD PUSH2 0xD71 CODESIZE SUB DUP1 PUSH2 0xD71 DUP4 CODECOPY DUP2 DUP2 ADD PUSH1 0x40 MSTORE DUP2 ADD SWAP1 PUSH2 0x31 SWAP2 SWAP1 PUSH2 0x1DA JUMP JUMPDEST DUP6 PUSH0 DUP1 PUSH2 0x100 EXP DUP2 SLOAD DUP2 PUSH20 0xFFFFFFFFFFFFFFFFFFFFFFFFFFFFFFFFFFFFFFFF MUL NOT AND SWAP1 DUP4 PUSH20 0xFFFFFFFFFFFFFFFFFFFFFFFFFFFFFFFFFFFFFFFF AND MUL OR SWAP1 SSTORE POP DUP5 PUSH1 0x1 PUSH0 PUSH2 0x100 EXP DUP2 SLOAD DUP2 PUSH20 0xFFFFFFFFFFFFFFFFFFFFFFFFFFFFFFFFFFFFFFFF MUL NOT AND SWAP1 DUP4 PUSH20 0xFFFFFFFFFFFFFFFFFFFFFFFFFFFFFFFFFFFFFFFF AND MUL OR SWAP1 SSTORE POP DUP4 PUSH1 0x2 DUP2 SWAP1 SSTORE POP DUP3 PUSH1 0x3 PUSH0 PUSH2 0x100 EXP DUP2 SLOAD DUP2 PUSH20 0xFFFFFFFFFFFFFFFFFFFFFFFFFFFFFFFFFFFFFFFF MUL NOT AND SWAP1 DUP4 PUSH20 0xFFFFFFFFFFFFFFFFFFFFFFFFFFFFFFFFFFFFFFFF AND MUL OR SWAP1 SSTORE POP DUP2 PUSH1 0x4 PUSH0 PUSH2 0x100 EXP DUP2 SLOAD DUP2 PUSH20 0xFFFFFFFFFFFFFFFFFFFFFFFFFFFFFFFFFFFFFFFF MUL NOT AND SWAP1 DUP4 PUSH20 0xFFFFFFFFFFFFFFFFFFFFFFFFFFFFFFFFFFFFFFFF AND MUL OR SWAP1 SSTORE POP DUP1 PUSH1 0x5 DUP2 SWAP1 SSTORE POP POP POP POP POP POP POP PUSH2 0x263 JUMP JUMPDEST PUSH0 DUP1 REVERT JUMPDEST PUSH0 PUSH20 0xFFFFFFFFFFFFFFFFFFFFFFFFFFFFFFFFFFFFFFFF DUP3 AND SWAP1 POP SWAP2 SWAP1 POP JUMP JUMPDEST PUSH0 PUSH2 0x176 DUP3 PUSH2 0x14D JUMP JUMPDEST SWAP1 POP SWAP2 SWAP1 POP JUMP JUMPDEST PUSH2 0x186 DUP2 PUSH2 0x16C JUMP JUMPDEST DUP2 EQ PUSH2 0x190 JUMPI PUSH0 DUP1 REVERT JUMPDEST POP JUMP JUMPDEST PUSH0 DUP2 MLOAD SWAP1 POP PUSH2 0x1A1 DUP2 PUSH2 0x17D JUMP JUMPDEST SWAP3 SWAP2 POP POP JUMP JUMPDEST PUSH0 DUP2 SWAP1 POP SWAP2 SWAP1 POP JUMP JUMPDEST PUSH2 0x1B9 DUP2 PUSH2 0x1A7 JUMP JUMPDEST DUP2 EQ PUSH2 0x1C3 JUMPI PUSH0 DUP1 REVERT JUMPDEST POP JUMP JUMPDEST PUSH0 DUP2 MLOAD SWAP1 POP PUSH2 0x1D4 DUP2 PUSH2 0x1B0 JUMP JUMPDEST SWAP3 SWAP2 POP POP JUMP JUMPDEST PUSH0 DUP1 PUSH0 DUP1 PUSH0 DUP1 PUSH1 0xC0 DUP8 DUP10 SUB SLT ISZERO PUSH2 0x1F4 JUMPI PUSH2 0x1F3 PUSH2 0x149 JUMP JUMPDEST JUMPDEST PUSH0 PUSH2 0x201 DUP10 DUP3 DUP11 ADD PUSH2 0x193 JUMP JUMPDEST SWAP7 POP POP PUSH1 0x20 PUSH2 0x212 DUP10 DUP3 DUP11 ADD PUSH2 0x193 JUMP JUMPDEST SWAP6 POP POP PUSH1 0x40 PUSH2 0x223 DUP10 DUP3 DUP11 ADD PUSH2 0x1C6 JUMP JUMPDEST SWAP5 POP POP PUSH1 0x60 PUSH2 0x234 DUP10 DUP3 DUP11 ADD PUSH2 0x193 JUMP JUMPDEST SWAP4 POP POP PUSH1 0x80 PUSH2 0x245 DUP10 DUP3 DUP11 ADD PUSH2 0x193 JUMP JUMPDEST SWAP3 POP POP PUSH1 0xA0 PUSH2 0x256 DUP10 DUP3 DUP11 ADD PUSH2 0x1C6 JUMP JUMPDEST SWAP2 POP POP SWAP3 SWAP6 POP SWAP3 SWAP6 POP SWAP3 SWAP6 JUMP JUMPDEST PUSH2 0xB01 DUP1 PUSH2 0x270 PUSH0 CODECOPY PUSH0 RETURN INVALID PUSH1 0x80 PUSH1 0x40 MSTORE CALLVALUE DUP1 ISZERO PUSH2 0xF JUMPI PUSH0 DUP1 REVERT JUMPDEST POP PUSH1 0x4 CALLDATASIZE LT PUSH2 0x91 JUMPI PUSH0 CALLDATALOAD PUSH1 0xE0 SHR DUP1 PUSH4 0x8119C065 GT PUSH2 0x64 JUMPI DUP1 PUSH4 0x8119C065 EQ PUSH2 0x10D JUMPI DUP1 PUSH4 0xACA8EBF4 EQ PUSH2 0x117 JUMPI DUP1 PUSH4 0xBDEB2EC8 EQ PUSH2 0x133 JUMPI DUP1 PUSH4 0xD21220A7 EQ PUSH2 0x14F JUMPI DUP1 PUSH4 0xF400FDE4 EQ PUSH2 0x16D JUMPI PUSH2 0x91 JUMP JUMPDEST DUP1 PUSH4 0x57BFCC7 EQ PUSH2 0x95 JUMPI DUP1 PUSH4 0x25BE124E EQ PUSH2 0xB3 JUMPI DUP1 PUSH4 0x52709725 EQ PUSH2 0xD1 JUMPI DUP1 PUSH4 0x73688914 EQ PUSH2 0xEF JUMPI JUMPDEST PUSH0 DUP1 REVERT JUMPDEST PUSH2 0x9D PUSH2 0x18B JUMP JUMPDEST PUSH1 0x40 MLOAD PUSH2 0xAA SWAP2 SWAP1 PUSH2 0x6E2 JUMP JUMPDEST PUSH1 0x40 MLOAD DUP1 SWAP2 SUB SWAP1 RETURN JUMPDEST PUSH2 0xBB PUSH2 0x191 JUMP JUMPDEST PUSH1 0x40 MLOAD PUSH2 0xC8 SWAP2 SWAP1 PUSH2 0x775 JUMP JUMPDEST PUSH1 0x40 MLOAD DUP1 SWAP2 SUB SWAP1 RETURN JUMPDEST PUSH2 0xD9 PUSH2 0x1B6 JUMP JUMPDEST PUSH1 0x40 MLOAD PUSH2 0xE6 SWAP2 SWAP1 PUSH2 0x7AE JUMP JUMPDEST PUSH1 0x40 MLOAD DUP1 SWAP2 SUB SWAP1 RETURN JUMPDEST PUSH2 0xF7 PUSH2 0x1DB JUMP JUMPDEST PUSH1 0x40 MLOAD PUSH2 0x104 SWAP2 SWAP1 PUSH2 0x7AE JUMP JUMPDEST PUSH1 0x40 MLOAD DUP1 SWAP2 SUB SWAP1 RETURN JUMPDEST PUSH2 0x115 PUSH2 0x200 JUMP JUMPDEST STOP JUMPDEST PUSH2 0x131 PUSH1 0x4 DUP1 CALLDATASIZE SUB DUP2 ADD SWAP1 PUSH2 0x12C SWAP2 SWAP1 PUSH2 0x7F5 JUMP JUMPDEST PUSH2 0x5C6 JUMP JUMPDEST STOP JUMPDEST PUSH2 0x14D PUSH1 0x4 DUP1 CALLDATASIZE SUB DUP2 ADD SWAP1 PUSH2 0x148 SWAP2 SWAP1 PUSH2 0x7F5 JUMP JUMPDEST PUSH2 0x5D0 JUMP JUMPDEST STOP JUMPDEST PUSH2 0x157 PUSH2 0x5DA JUMP JUMPDEST PUSH1 0x40 MLOAD PUSH2 0x164 SWAP2 SWAP1 PUSH2 0x775 JUMP JUMPDEST PUSH1 0x40 MLOAD DUP1 SWAP2 SUB SWAP1 RETURN JUMPDEST PUSH2 0x175 PUSH2 0x5FD JUMP JUMPDEST PUSH1 0x40 MLOAD PUSH2 0x182 SWAP2 SWAP1 PUSH2 0x6E2 JUMP JUMPDEST PUSH1 0x40 MLOAD DUP1 SWAP2 SUB SWAP1 RETURN JUMPDEST PUSH1 0x5 SLOAD DUP2 JUMP JUMPDEST PUSH1 0x3 PUSH0 SWAP1 SLOAD SWAP1 PUSH2 0x100 EXP SWAP1 DIV PUSH20 0xFFFFFFFFFFFFFFFFFFFFFFFFFFFFFFFFFFFFFFFF AND DUP2 JUMP JUMPDEST PUSH1 0x4 PUSH0 SWAP1 SLOAD SWAP1 PUSH2 0x100 EXP SWAP1 DIV PUSH20 0xFFFFFFFFFFFFFFFFFFFFFFFFFFFFFFFFFFFFFFFF AND DUP2 JUMP JUMPDEST PUSH1 0x1 PUSH0 SWAP1 SLOAD SWAP1 PUSH2 0x100 EXP SWAP1 DIV PUSH20 0xFFFFFFFFFFFFFFFFFFFFFFFFFFFFFFFFFFFFFFFF AND DUP2 JUMP JUMPDEST PUSH1 0x1 PUSH0 SWAP1 SLOAD SWAP1 PUSH2 0x100 EXP SWAP1 DIV PUSH20 0xFFFFFFFFFFFFFFFFFFFFFFFFFFFFFFFFFFFFFFFF AND PUSH20 0xFFFFFFFFFFFFFFFFFFFFFFFFFFFFFFFFFFFFFFFF AND CALLER PUSH20 0xFFFFFFFFFFFFFFFFFFFFFFFFFFFFFFFFFFFFFFFF AND EQ DUP1 PUSH2 0x2A7 JUMPI POP PUSH1 0x4 PUSH0 SWAP1 SLOAD SWAP1 PUSH2 0x100 EXP SWAP1 DIV PUSH20 0xFFFFFFFFFFFFFFFFFFFFFFFFFFFFFFFFFFFFFFFF AND PUSH20 0xFFFFFFFFFFFFFFFFFFFFFFFFFFFFFFFFFFFFFFFF AND CALLER PUSH20 0xFFFFFFFFFFFFFFFFFFFFFFFFFFFFFFFFFFFFFFFF AND EQ JUMPDEST PUSH2 0x2E6 JUMPI PUSH1 0x40 MLOAD PUSH32 0x8C379A000000000000000000000000000000000000000000000000000000000 DUP2 MSTORE PUSH1 0x4 ADD PUSH2 0x2DD SWAP1 PUSH2 0x87A JUMP JUMPDEST PUSH1 0x40 MLOAD DUP1 SWAP2 SUB SWAP1 REVERT JUMPDEST PUSH1 0x2 SLOAD PUSH0 DUP1 SLOAD SWAP1 PUSH2 0x100 EXP SWAP1 DIV PUSH20 0xFFFFFFFFFFFFFFFFFFFFFFFFFFFFFFFFFFFFFFFF AND PUSH20 0xFFFFFFFFFFFFFFFFFFFFFFFFFFFFFFFFFFFFFFFF AND PUSH4 0xDD62ED3E PUSH1 0x1 PUSH0 SWAP1 SLOAD SWAP1 PUSH2 0x100 EXP SWAP1 DIV PUSH20 0xFFFFFFFFFFFFFFFFFFFFFFFFFFFFFFFFFFFFFFFF AND ADDRESS PUSH1 0x40 MLOAD DUP4 PUSH4 0xFFFFFFFF AND PUSH1 0xE0 SHL DUP2 MSTORE PUSH1 0x4 ADD PUSH2 0x364 SWAP3 SWAP2 SWAP1 PUSH2 0x898 JUMP JUMPDEST PUSH1 0x20 PUSH1 0x40 MLOAD DUP1 DUP4 SUB DUP2 DUP7 GAS STATICCALL ISZERO DUP1 ISZERO PUSH2 0x37F JUMPI RETURNDATASIZE PUSH0 DUP1 RETURNDATACOPY RETURNDATASIZE PUSH0 REVERT JUMPDEST POP POP POP POP PUSH1 0x40 MLOAD RETURNDATASIZE PUSH1 0x1F NOT PUSH1 0x1F DUP3 ADD AND DUP3 ADD DUP1 PUSH1 0x40 MSTORE POP DUP2 ADD SWAP1 PUSH2 0x3A3 SWAP2 SWAP1 PUSH2 0x8D3 JUMP JUMPDEST LT ISZERO PUSH2 0x3E4 JUMPI PUSH1 0x40 MLOAD PUSH32 0x8C379A000000000000000000000000000000000000000000000000000000000 DUP2 MSTORE PUSH1 0x4 ADD PUSH2 0x3DB SWAP1 PUSH2 0x948 JUMP JUMPDEST PUSH1 0x40 MLOAD DUP1 SWAP2 SUB SWAP1 REVERT JUMPDEST PUSH1 0x5 SLOAD PUSH1 0x3 PUSH0 SWAP1 SLOAD SWAP1 PUSH2 0x100 EXP SWAP1 DIV PUSH20 0xFFFFFFFFFFFFFFFFFFFFFFFFFFFFFFFFFFFFFFFF AND PUSH20 0xFFFFFFFFFFFFFFFFFFFFFFFFFFFFFFFFFFFFFFFF AND PUSH4 0xDD62ED3E PUSH1 0x4 PUSH0 SWAP1 SLOAD SWAP1 PUSH2 0x100 EXP SWAP1 DIV PUSH20 0xFFFFFFFFFFFFFFFFFFFFFFFFFFFFFFFFFFFFFFFF AND ADDRESS PUSH1 0x40 MLOAD DUP4 PUSH4 0xFFFFFFFF AND PUSH1 0xE0 SHL DUP2 MSTORE PUSH1 0x4 ADD PUSH2 0x464 SWAP3 SWAP2 SWAP1 PUSH2 0x898 JUMP JUMPDEST PUSH1 0x20 PUSH1 0x40 MLOAD DUP1 DUP4 SUB DUP2 DUP7 GAS STATICCALL ISZERO DUP1 ISZERO PUSH2 0x47F JUMPI RETURNDATASIZE PUSH0 DUP1 RETURNDATACOPY RETURNDATASIZE PUSH0 REVERT JUMPDEST POP POP POP POP PUSH1 0x40 MLOAD RETURNDATASIZE PUSH1 0x1F NOT PUSH1 0x1F DUP3 ADD AND DUP3 ADD DUP1 PUSH1 0x40 MSTORE POP DUP2 ADD SWAP1 PUSH2 0x4A3 SWAP2 SWAP1 PUSH2 0x8D3 JUMP JUMPDEST LT ISZERO PUSH2 0x4E4 JUMPI PUSH1 0x40 MLOAD PUSH32 0x8C379A000000000000000000000000000000000000000000000000000000000 DUP2 MSTORE PUSH1 0x4 ADD PUSH2 0x4DB SWAP1 PUSH2 0x9B0 JUMP JUMPDEST PUSH1 0x40 MLOAD DUP1 SWAP2 SUB SWAP1 REVERT JUMPDEST PUSH2 0x553 PUSH0 DUP1 SLOAD SWAP1 PUSH2 0x100 EXP SWAP1 DIV PUSH20 0xFFFFFFFFFFFFFFFFFFFFFFFFFFFFFFFFFFFFFFFF AND PUSH1 0x1 PUSH0 SWAP1 SLOAD SWAP1 PUSH2 0x100 EXP SWAP1 DIV PUSH20 0xFFFFFFFFFFFFFFFFFFFFFFFFFFFFFFFFFFFFFFFF AND PUSH1 0x4 PUSH0 SWAP1 SLOAD SWAP1 PUSH2 0x100 EXP SWAP1 DIV PUSH20 0xFFFFFFFFFFFFFFFFFFFFFFFFFFFFFFFFFFFFFFFF AND PUSH1 0x2 SLOAD PUSH2 0x603 JUMP JUMPDEST PUSH2 0x5C4 PUSH1 0x3 PUSH0 SWAP1 SLOAD SWAP1 PUSH2 0x100 EXP SWAP1 DIV PUSH20 0xFFFFFFFFFFFFFFFFFFFFFFFFFFFFFFFFFFFFFFFF AND PUSH1 0x4 PUSH0 SWAP1 SLOAD SWAP1 PUSH2 0x100 EXP SWAP1 DIV PUSH20 0xFFFFFFFFFFFFFFFFFFFFFFFFFFFFFFFFFFFFFFFF AND PUSH1 0x1 PUSH0 SWAP1 SLOAD SWAP1 PUSH2 0x100 EXP SWAP1 DIV PUSH20 0xFFFFFFFFFFFFFFFFFFFFFFFFFFFFFFFFFFFFFFFF AND PUSH1 0x5 SLOAD PUSH2 0x603 JUMP JUMPDEST JUMP JUMPDEST DUP1 PUSH1 0x2 DUP2 SWAP1 SSTORE POP POP JUMP JUMPDEST DUP1 PUSH1 0x5 DUP2 SWAP1 SSTORE POP POP JUMP JUMPDEST PUSH0 DUP1 SLOAD SWAP1 PUSH2 0x100 EXP SWAP1 DIV PUSH20 0xFFFFFFFFFFFFFFFFFFFFFFFFFFFFFFFFFFFFFFFF AND DUP2 JUMP JUMPDEST PUSH1 0x2 SLOAD DUP2 JUMP JUMPDEST PUSH0 DUP5 PUSH20 0xFFFFFFFFFFFFFFFFFFFFFFFFFFFFFFFFFFFFFFFF AND PUSH4 0x23B872DD DUP6 DUP6 DUP6 PUSH1 0x40 MLOAD DUP5 PUSH4 0xFFFFFFFF AND PUSH1 0xE0 SHL DUP2 MSTORE PUSH1 0x4 ADD PUSH2 0x641 SWAP4 SWAP3 SWAP2 SWAP1 PUSH2 0x9CE JUMP JUMPDEST PUSH1 0x20 PUSH1 0x40 MLOAD DUP1 DUP4 SUB DUP2 PUSH0 DUP8 GAS CALL ISZERO DUP1 ISZERO PUSH2 0x65D JUMPI RETURNDATASIZE PUSH0 DUP1 RETURNDATACOPY RETURNDATASIZE PUSH0 REVERT JUMPDEST POP POP POP POP PUSH1 0x40 MLOAD RETURNDATASIZE PUSH1 0x1F NOT PUSH1 0x1F DUP3 ADD AND DUP3 ADD DUP1 PUSH1 0x40 MSTORE POP DUP2 ADD SWAP1 PUSH2 0x681 SWAP2 SWAP1 PUSH2 0xA38 JUMP JUMPDEST SWAP1 POP DUP1 PUSH2 0x6C3 JUMPI PUSH1 0x40 MLOAD PUSH32 0x8C379A000000000000000000000000000000000000000000000000000000000 DUP2 MSTORE PUSH1 0x4 ADD PUSH2 0x6BA SWAP1 PUSH2 0xAAD JUMP JUMPDEST PUSH1 0x40 MLOAD DUP1 SWAP2 SUB SWAP1 REVERT JUMPDEST POP POP POP POP POP JUMP JUMPDEST PUSH0 DUP2 SWAP1 POP SWAP2 SWAP1 POP JUMP JUMPDEST PUSH2 0x6DC DUP2 PUSH2 0x6CA JUMP JUMPDEST DUP3 MSTORE POP POP JUMP JUMPDEST PUSH0 PUSH1 0x20 DUP3 ADD SWAP1 POP PUSH2 0x6F5 PUSH0 DUP4 ADD DUP5 PUSH2 0x6D3 JUMP JUMPDEST SWAP3 SWAP2 POP POP JUMP JUMPDEST PUSH0 PUSH20 0xFFFFFFFFFFFFFFFFFFFFFFFFFFFFFFFFFFFFFFFF DUP3 AND SWAP1 POP SWAP2 SWAP1 POP JUMP JUMPDEST PUSH0 DUP2 SWAP1 POP SWAP2 SWAP1 POP JUMP JUMPDEST PUSH0 PUSH2 0x73D PUSH2 0x738 PUSH2 0x733 DUP5 PUSH2 0x6FB JUMP JUMPDEST PUSH2 0x71A JUMP JUMPDEST PUSH2 0x6FB JUMP JUMPDEST SWAP1 POP SWAP2 SWAP1 POP JUMP JUMPDEST PUSH0 PUSH2 0x74E DUP3 PUSH2 0x723 JUMP JUMPDEST SWAP1 POP SWAP2 SWAP1 POP JUMP JUMPDEST PUSH0 PUSH2 0x75F DUP3 PUSH2 0x744 JUMP JUMPDEST SWAP1 POP SWAP2 SWAP1 POP JUMP JUMPDEST PUSH2 0x76F DUP2 PUSH2 0x755 JUMP JUMPDEST DUP3 MSTORE POP POP JUMP JUMPDEST PUSH0 PUSH1 0x20 DUP3 ADD SWAP1 POP PUSH2 0x788 PUSH0 DUP4 ADD DUP5 PUSH2 0x766 JUMP JUMPDEST SWAP3 SWAP2 POP POP JUMP JUMPDEST PUSH0 PUSH2 0x798 DUP3 PUSH2 0x6FB JUMP JUMPDEST SWAP1 POP SWAP2 SWAP1 POP JUMP JUMPDEST PUSH2 0x7A8 DUP2 PUSH2 0x78E JUMP JUMPDEST DUP3 MSTORE POP POP JUMP JUMPDEST PUSH0 PUSH1 0x20 DUP3 ADD SWAP1 POP PUSH2 0x7C1 PUSH0 DUP4 ADD DUP5 PUSH2 0x79F JUMP JUMPDEST SWAP3 SWAP2 POP POP JUMP JUMPDEST PUSH0 DUP1 REVERT JUMPDEST PUSH2 0x7D4 DUP2 PUSH2 0x6CA JUMP JUMPDEST DUP2 EQ PUSH2 0x7DE JUMPI PUSH0 DUP1 REVERT JUMPDEST POP JUMP JUMPDEST PUSH0 DUP2 CALLDATALOAD SWAP1 POP PUSH2 0x7EF DUP2 PUSH2 0x7CB JUMP JUMPDEST SWAP3 SWAP2 POP POP JUMP JUMPDEST PUSH0 PUSH1 0x20 DUP3 DUP5 SUB SLT ISZERO PUSH2 0x80A JUMPI PUSH2 0x809 PUSH2 0x7C7 JUMP JUMPDEST JUMPDEST PUSH0 PUSH2 0x817 DUP5 DUP3 DUP6 ADD PUSH2 0x7E1 JUMP JUMPDEST SWAP2 POP POP SWAP3 SWAP2 POP POP JUMP JUMPDEST PUSH0 DUP3 DUP3 MSTORE PUSH1 0x20 DUP3 ADD SWAP1 POP SWAP3 SWAP2 POP POP JUMP JUMPDEST PUSH32 0x4E6F7420617574686F72697A6564000000000000000000000000000000000000 PUSH0 DUP3 ADD MSTORE POP JUMP JUMPDEST PUSH0 PUSH2 0x864 PUSH1 0xE DUP4 PUSH2 0x820 JUMP JUMPDEST SWAP2 POP PUSH2 0x86F DUP3 PUSH2 0x830 JUMP JUMPDEST PUSH1 0x20 DUP3 ADD SWAP1 POP SWAP2 SWAP1 POP JUMP JUMPDEST PUSH0 PUSH1 0x20 DUP3 ADD SWAP1 POP DUP2 DUP2 SUB PUSH0 DUP4 ADD MSTORE PUSH2 0x891 DUP2 PUSH2 0x858 JUMP JUMPDEST SWAP1 POP SWAP2 SWAP1 POP JUMP JUMPDEST PUSH0 PUSH1 0x40 DUP3 ADD SWAP1 POP PUSH2 0x8AB PUSH0 DUP4 ADD DUP6 PUSH2 0x79F JUMP JUMPDEST PUSH2 0x8B8 PUSH1 0x20 DUP4 ADD DUP5 PUSH2 0x79F JUMP JUMPDEST SWAP4 SWAP3 POP POP POP JUMP JUMPDEST PUSH0 DUP2 MLOAD SWAP1 POP PUSH2 0x8CD DUP2 PUSH2 0x7CB JUMP JUMPDEST SWAP3 SWAP2 POP POP JUMP JUMPDEST PUSH0 PUSH1 0x20 DUP3 DUP5 SUB SLT ISZERO PUSH2 0x8E8 JUMPI PUSH2 0x8E7 PUSH2 0x7C7 JUMP JUMPDEST JUMPDEST PUSH0 PUSH2 0x8F5 DUP5 DUP3 DUP6 ADD PUSH2 0x8BF JUMP JUMPDEST SWAP2 POP POP SWAP3 SWAP2 POP POP JUMP JUMPDEST PUSH32 0x546F6B656E203120616C6C6F77616E636520746F6F206C6F7700000000000000 PUSH0 DUP3 ADD MSTORE POP JUMP JUMPDEST PUSH0 PUSH2 0x932 PUSH1 0x19 DUP4 PUSH2 0x820 JUMP JUMPDEST SWAP2 POP PUSH2 0x93D DUP3 PUSH2 0x8FE JUMP JUMPDEST PUSH1 0x20 DUP3 ADD SWAP1 POP SWAP2 SWAP1 POP JUMP JUMPDEST PUSH0 PUSH1 0x20 DUP3 ADD SWAP1 POP DUP2 DUP2 SUB PUSH0 DUP4 ADD MSTORE PUSH2 0x95F DUP2 PUSH2 0x926 JUMP JUMPDEST SWAP1 POP SWAP2 SWAP1 POP JUMP JUMPDEST PUSH32 0x546F6B656E203220616C6C6F77616E636520746F6F206C6F7700000000000000 PUSH0 DUP3 ADD MSTORE POP JUMP JUMPDEST PUSH0 PUSH2 0x99A PUSH1 0x19 DUP4 PUSH2 0x820 JUMP JUMPDEST SWAP2 POP PUSH2 0x9A5 DUP3 PUSH2 0x966 JUMP JUMPDEST PUSH1 0x20 DUP3 ADD SWAP1 POP SWAP2 SWAP1 POP JUMP JUMPDEST PUSH0 PUSH1 0x20 DUP3 ADD SWAP1 POP DUP2 DUP2 SUB PUSH0 DUP4 ADD MSTORE PUSH2 0x9C7 DUP2 PUSH2 0x98E JUMP JUMPDEST SWAP1 POP SWAP2 SWAP1 POP JUMP JUMPDEST PUSH0 PUSH1 0x60 DUP3 ADD SWAP1 POP PUSH2 0x9E1 PUSH0 DUP4 ADD DUP7 PUSH2 0x79F JUMP JUMPDEST PUSH2 0x9EE PUSH1 0x20 DUP4 ADD DUP6 PUSH2 0x79F JUMP JUMPDEST PUSH2 0x9FB PUSH1 0x40 DUP4 ADD DUP5 PUSH2 0x6D3 JUMP JUMPDEST SWAP5 SWAP4 POP POP POP POP JUMP JUMPDEST PUSH0 DUP2 ISZERO ISZERO SWAP1 POP SWAP2 SWAP1 POP JUMP JUMPDEST PUSH2 0xA17 DUP2 PUSH2 0xA03 JUMP JUMPDEST DUP2 EQ PUSH2 0xA21 JUMPI PUSH0 DUP1 REVERT JUMPDEST POP JUMP JUMPDEST PUSH0 DUP2 MLOAD SWAP1 POP PUSH2 0xA32 DUP2 PUSH2 0xA0E JUMP JUMPDEST SWAP3 SWAP2 POP POP JUMP JUMPDEST PUSH0 PUSH1 0x20 DUP3 DUP5 SUB SLT ISZERO PUSH2 0xA4D JUMPI PUSH2 0xA4C PUSH2 0x7C7 JUMP JUMPDEST JUMPDEST PUSH0 PUSH2 0xA5A DUP5 DUP3 DUP6 ADD PUSH2 0xA24 JUMP JUMPDEST SWAP2 POP POP SWAP3 SWAP2 POP POP JUMP JUMPDEST PUSH32 0x546F6B656E207472616E73666572206661696C65640000000000000000000000 PUSH0 DUP3 ADD MSTORE POP JUMP JUMPDEST PUSH0 PUSH2 0xA97 PUSH1 0x15 DUP4 PUSH2 0x820 JUMP JUMPDEST SWAP2 POP PUSH2 0xAA2 DUP3 PUSH2 0xA63 JUMP JUMPDEST PUSH1 0x20 DUP3 ADD SWAP1 POP SWAP2 SWAP1 POP JUMP JUMPDEST PUSH0 PUSH1 0x20 DUP3 ADD SWAP1 POP DUP2 DUP2 SUB PUSH0 DUP4 ADD MSTORE PUSH2 0xAC4 DUP2 PUSH2 0xA8B JUMP JUMPDEST SWAP1 POP SWAP2 SWAP1 POP JUMP INVALID LOG2 PUSH5 0x6970667358 0x22 SLT KECCAK256 SWAP14 SHR PUSH27 0x396F0E7298AE2BBB555FAD9D3A6C7A35A1C23E3B1D2297EF0967DC PUSH32 0x7364736F6C634300081A00330000000000000000000000000000000000000000 "
				},
				"gasEstimates": {
					"creation": {
						"codeDepositCost": "563400",
						"executionCost": "infinite",
						"totalCost": "infinite"
					},
					"external": {
						"amount1()": "2513",
						"amount2()": "2426",
						"owner1()": "2575",
						"owner2()": "2553",
						"setAmount1(uint256)": "22537",
						"setAmount2(uint256)": "22559",
						"swap()": "infinite",
						"token1()": "infinite",
						"token2()": "infinite"
					},
					"internal": {
						"_safeTransferFrom(contract IERC20,address,address,uint256)": "infinite"
					}
				},
				"methodIdentifiers": {
					"amount1()": "f400fde4",
					"amount2()": "057bfcc7",
					"owner1()": "73688914",
					"owner2()": "52709725",
					"setAmount1(uint256)": "aca8ebf4",
					"setAmount2(uint256)": "bdeb2ec8",
					"swap()": "8119c065",
					"token1()": "d21220a7",
					"token2()": "25be124e"
				}
			},
			"storageLayout": {
				"storage": [
					{
						"astId": 58,
						"contract": "contracts/TokenSwap.sol:TokenSwap",
						"label": "token1",
						"offset": 0,
						"slot": "0",
						"type": "t_contract(IERC20)52"
					},
					{
						"astId": 60,
						"contract": "contracts/TokenSwap.sol:TokenSwap",
						"label": "owner1",
						"offset": 0,
						"slot": "1",
						"type": "t_address"
					},
					{
						"astId": 62,
						"contract": "contracts/TokenSwap.sol:TokenSwap",
						"label": "amount1",
						"offset": 0,
						"slot": "2",
						"type": "t_uint256"
					},
					{
						"astId": 65,
						"contract": "contracts/TokenSwap.sol:TokenSwap",
						"label": "token2",
						"offset": 0,
						"slot": "3",
						"type": "t_contract(IERC20)52"
					},
					{
						"astId": 67,
						"contract": "contracts/TokenSwap.sol:TokenSwap",
						"label": "owner2",
						"offset": 0,
						"slot": "4",
						"type": "t_address"
					},
					{
						"astId": 69,
						"contract": "contracts/TokenSwap.sol:TokenSwap",
						"label": "amount2",
						"offset": 0,
						"slot": "5",
						"type": "t_uint256"
					}
				],
				"types": {
					"t_address": {
						"encoding": "inplace",
						"label": "address",
						"numberOfBytes": "20"
					},
					"t_contract(IERC20)52": {
						"encoding": "inplace",
						"label": "contract IERC20",
						"numberOfBytes": "20"
					},
					"t_uint256": {
						"encoding": "inplace",
						"label": "uint256",
						"numberOfBytes": "32"
					}
				}
			},
			"userdoc": {
				"kind": "user",
				"methods": {},
				"version": 1
			}
		}
	}
}